{"contracts/HashPunkStorage.sol":{"HashPunkStorage":{"abi":[{"inputs":[],"name":"Hpoint","outputs":[{"internalType":"uint256","name":"","type":"uint256"}],"stateMutability":"view","type":"function"},{"inputs":[],"name":"base","outputs":[{"internalType":"uint256","name":"","type":"uint256"}],"stateMutability":"view","type":"function"},{"inputs":[],"name":"baseMetadataURI","outputs":[{"internalType":"string","name":"","type":"string"}],"stateMutability":"view","type":"function"},{"inputs":[],"name":"hValue","outputs":[{"internalType":"contract IHValue","name":"","type":"address"}],"stateMutability":"view","type":"function"},{"inputs":[],"name":"luckyEnd","outputs":[{"internalType":"uint256","name":"","type":"uint256"}],"stateMutability":"view","type":"function"},{"inputs":[],"name":"luckyStart","outputs":[{"internalType":"uint256","name":"","type":"uint256"}],"stateMutability":"view","type":"function"},{"inputs":[],"name":"owner","outputs":[{"internalType":"address","name":"","type":"address"}],"stateMutability":"view","type":"function"},{"inputs":[],"name":"passId","outputs":[{"internalType":"uint256","name":"","type":"uint256"}],"stateMutability":"view","type":"function"},{"inputs":[],"name":"passIdBase","outputs":[{"internalType":"uint256","name":"","type":"uint256"}],"stateMutability":"view","type":"function"},{"inputs":[{"internalType":"address","name":"","type":"address"},{"internalType":"uint256","name":"","type":"uint256"}],"name":"userToRareIds","outputs":[{"internalType":"uint256","name":"","type":"uint256"}],"stateMutability":"view","type":"function"},{"inputs":[],"name":"voucher","outputs":[{"internalType":"uint256","name":"","type":"uint256"}],"stateMutability":"view","type":"function"}],"devdoc":{"kind":"dev","methods":{},"version":1},"evm":{"bytecode":{"linkReferences":{},"object":"608060405260016005556101f460065534801561001b57600080fd5b506103188061002b6000396000f3fe608060405234801561001057600080fd5b50600436106100a95760003560e01c806383d18f7a1161007157806383d18f7a146100f95780638da5cb5b146101015780639332c9a51461012c578063a8a864571461013f578063cdda418c14610152578063f7e056ee1461015a57600080fd5b80630e471525146100ae578063444b7aaf146100ca5780635001f3b5146100d25780635b2bd79e146100db57806380893c17146100f0575b600080fd5b6100b760055481565b6040519081526020015b60405180910390f35b6100b7600181565b6100b760015481565b6100e3610163565b6040516100c19190610222565b6100b760005481565b6100b7600281565b600354610114906001600160a01b031681565b6040516001600160a01b0390911681526020016100c1565b600254610114906001600160a01b031681565b6100b761014d366004610270565b6101f1565b6100b7600381565b6100b760065481565b60048054610170906102a8565b80601f016020809104026020016040519081016040528092919081815260200182805461019c906102a8565b80156101e95780601f106101be576101008083540402835291602001916101e9565b820191906000526020600020905b8154815290600101906020018083116101cc57829003601f168201915b505050505081565b6007602052816000526040600020818154811061020d57600080fd5b90600052602060002001600091509150505481565b600060208083528351808285015260005b8181101561024f57858101830151858201604001528201610233565b506000604082860101526040601f19601f8301168501019250505092915050565b6000806040838503121561028357600080fd5b82356001600160a01b038116811461029a57600080fd5b946020939093013593505050565b600181811c908216806102bc57607f821691505b6020821081036102dc57634e487b7160e01b600052602260045260246000fd5b5091905056fea26469706673582212208620cc1759f2c2e66ea3430d44553a29ba64895efb2329ab912f1200e97a935364736f6c63430008110033","opcodes":"PUSH1 0x80 PUSH1 0x40 MSTORE PUSH1 0x1 PUSH1 0x5 SSTORE PUSH2 0x1F4 PUSH1 0x6 SSTORE CALLVALUE DUP1 ISZERO PUSH2 0x1B JUMPI PUSH1 0x0 DUP1 REVERT JUMPDEST POP PUSH2 0x318 DUP1 PUSH2 0x2B PUSH1 0x0 CODECOPY PUSH1 0x0 RETURN INVALID PUSH1 0x80 PUSH1 0x40 MSTORE CALLVALUE DUP1 ISZERO PUSH2 0x10 JUMPI PUSH1 0x0 DUP1 REVERT JUMPDEST POP PUSH1 0x4 CALLDATASIZE LT PUSH2 0xA9 JUMPI PUSH1 0x0 CALLDATALOAD PUSH1 0xE0 SHR DUP1 PUSH4 0x83D18F7A GT PUSH2 0x71 JUMPI DUP1 PUSH4 0x83D18F7A EQ PUSH2 0xF9 JUMPI DUP1 PUSH4 0x8DA5CB5B EQ PUSH2 0x101 JUMPI DUP1 PUSH4 0x9332C9A5 EQ PUSH2 0x12C JUMPI DUP1 PUSH4 0xA8A86457 EQ PUSH2 0x13F JUMPI DUP1 PUSH4 0xCDDA418C EQ PUSH2 0x152 JUMPI DUP1 PUSH4 0xF7E056EE EQ PUSH2 0x15A JUMPI PUSH1 0x0 DUP1 REVERT JUMPDEST DUP1 PUSH4 0xE471525 EQ PUSH2 0xAE JUMPI DUP1 PUSH4 0x444B7AAF EQ PUSH2 0xCA JUMPI DUP1 PUSH4 0x5001F3B5 EQ PUSH2 0xD2 JUMPI DUP1 PUSH4 0x5B2BD79E EQ PUSH2 0xDB JUMPI DUP1 PUSH4 0x80893C17 EQ PUSH2 0xF0 JUMPI JUMPDEST PUSH1 0x0 DUP1 REVERT JUMPDEST PUSH2 0xB7 PUSH1 0x5 SLOAD DUP2 JUMP JUMPDEST PUSH1 0x40 MLOAD SWAP1 DUP2 MSTORE PUSH1 0x20 ADD JUMPDEST PUSH1 0x40 MLOAD DUP1 SWAP2 SUB SWAP1 RETURN JUMPDEST PUSH2 0xB7 PUSH1 0x1 DUP2 JUMP JUMPDEST PUSH2 0xB7 PUSH1 0x1 SLOAD DUP2 JUMP JUMPDEST PUSH2 0xE3 PUSH2 0x163 JUMP JUMPDEST PUSH1 0x40 MLOAD PUSH2 0xC1 SWAP2 SWAP1 PUSH2 0x222 JUMP JUMPDEST PUSH2 0xB7 PUSH1 0x0 SLOAD DUP2 JUMP JUMPDEST PUSH2 0xB7 PUSH1 0x2 DUP2 JUMP JUMPDEST PUSH1 0x3 SLOAD PUSH2 0x114 SWAP1 PUSH1 0x1 PUSH1 0x1 PUSH1 0xA0 SHL SUB AND DUP2 JUMP JUMPDEST PUSH1 0x40 MLOAD PUSH1 0x1 PUSH1 0x1 PUSH1 0xA0 SHL SUB SWAP1 SWAP2 AND DUP2 MSTORE PUSH1 0x20 ADD PUSH2 0xC1 JUMP JUMPDEST PUSH1 0x2 SLOAD PUSH2 0x114 SWAP1 PUSH1 0x1 PUSH1 0x1 PUSH1 0xA0 SHL SUB AND DUP2 JUMP JUMPDEST PUSH2 0xB7 PUSH2 0x14D CALLDATASIZE PUSH1 0x4 PUSH2 0x270 JUMP JUMPDEST PUSH2 0x1F1 JUMP JUMPDEST PUSH2 0xB7 PUSH1 0x3 DUP2 JUMP JUMPDEST PUSH2 0xB7 PUSH1 0x6 SLOAD DUP2 JUMP JUMPDEST PUSH1 0x4 DUP1 SLOAD PUSH2 0x170 SWAP1 PUSH2 0x2A8 JUMP JUMPDEST DUP1 PUSH1 0x1F ADD PUSH1 0x20 DUP1 SWAP2 DIV MUL PUSH1 0x20 ADD PUSH1 0x40 MLOAD SWAP1 DUP2 ADD PUSH1 0x40 MSTORE DUP1 SWAP3 SWAP2 SWAP1 DUP2 DUP2 MSTORE PUSH1 0x20 ADD DUP3 DUP1 SLOAD PUSH2 0x19C SWAP1 PUSH2 0x2A8 JUMP JUMPDEST DUP1 ISZERO PUSH2 0x1E9 JUMPI DUP1 PUSH1 0x1F LT PUSH2 0x1BE JUMPI PUSH2 0x100 DUP1 DUP4 SLOAD DIV MUL DUP4 MSTORE SWAP2 PUSH1 0x20 ADD SWAP2 PUSH2 0x1E9 JUMP JUMPDEST DUP3 ADD SWAP2 SWAP1 PUSH1 0x0 MSTORE PUSH1 0x20 PUSH1 0x0 KECCAK256 SWAP1 JUMPDEST DUP2 SLOAD DUP2 MSTORE SWAP1 PUSH1 0x1 ADD SWAP1 PUSH1 0x20 ADD DUP1 DUP4 GT PUSH2 0x1CC JUMPI DUP3 SWAP1 SUB PUSH1 0x1F AND DUP3 ADD SWAP2 JUMPDEST POP POP POP POP POP DUP2 JUMP JUMPDEST PUSH1 0x7 PUSH1 0x20 MSTORE DUP2 PUSH1 0x0 MSTORE PUSH1 0x40 PUSH1 0x0 KECCAK256 DUP2 DUP2 SLOAD DUP2 LT PUSH2 0x20D JUMPI PUSH1 0x0 DUP1 REVERT JUMPDEST SWAP1 PUSH1 0x0 MSTORE PUSH1 0x20 PUSH1 0x0 KECCAK256 ADD PUSH1 0x0 SWAP2 POP SWAP2 POP POP SLOAD DUP2 JUMP JUMPDEST PUSH1 0x0 PUSH1 0x20 DUP1 DUP4 MSTORE DUP4 MLOAD DUP1 DUP3 DUP6 ADD MSTORE PUSH1 0x0 JUMPDEST DUP2 DUP2 LT ISZERO PUSH2 0x24F JUMPI DUP6 DUP2 ADD DUP4 ADD MLOAD DUP6 DUP3 ADD PUSH1 0x40 ADD MSTORE DUP3 ADD PUSH2 0x233 JUMP JUMPDEST POP PUSH1 0x0 PUSH1 0x40 DUP3 DUP7 ADD ADD MSTORE PUSH1 0x40 PUSH1 0x1F NOT PUSH1 0x1F DUP4 ADD AND DUP6 ADD ADD SWAP3 POP POP POP SWAP3 SWAP2 POP POP JUMP JUMPDEST PUSH1 0x0 DUP1 PUSH1 0x40 DUP4 DUP6 SUB SLT ISZERO PUSH2 0x283 JUMPI PUSH1 0x0 DUP1 REVERT JUMPDEST DUP3 CALLDATALOAD PUSH1 0x1 PUSH1 0x1 PUSH1 0xA0 SHL SUB DUP2 AND DUP2 EQ PUSH2 0x29A JUMPI PUSH1 0x0 DUP1 REVERT JUMPDEST SWAP5 PUSH1 0x20 SWAP4 SWAP1 SWAP4 ADD CALLDATALOAD SWAP4 POP POP POP JUMP JUMPDEST PUSH1 0x1 DUP2 DUP2 SHR SWAP1 DUP3 AND DUP1 PUSH2 0x2BC JUMPI PUSH1 0x7F DUP3 AND SWAP2 POP JUMPDEST PUSH1 0x20 DUP3 LT DUP2 SUB PUSH2 0x2DC JUMPI PUSH4 0x4E487B71 PUSH1 0xE0 SHL PUSH1 0x0 MSTORE PUSH1 0x22 PUSH1 0x4 MSTORE PUSH1 0x24 PUSH1 0x0 REVERT JUMPDEST POP SWAP2 SWAP1 POP JUMP INVALID LOG2 PUSH5 0x6970667358 0x22 SLT KECCAK256 DUP7 KECCAK256 0xCC OR MSIZE CALLCODE 0xC2 0xE6 PUSH15 0xA3430D44553A29BA64895EFB2329AB SWAP2 0x2F SLT STOP 0xE9 PUSH27 0x935364736F6C634300081100330000000000000000000000000000 "},"gasEstimates":{"creation":{"codeDepositCost":"158400","executionCost":"44414","totalCost":"202814"},"external":{"Hpoint()":"184","base()":"2329","baseMetadataURI()":"infinite","hValue()":"2381","luckyEnd()":"2394","luckyStart()":"2285","owner()":"2359","passId()":"207","passIdBase()":"2373","userToRareIds(address,uint256)":"4764","voucher()":"272"}},"methodIdentifiers":{"Hpoint()":"83d18f7a","base()":"5001f3b5","baseMetadataURI()":"5b2bd79e","hValue()":"9332c9a5","luckyEnd()":"f7e056ee","luckyStart()":"0e471525","owner()":"8da5cb5b","passId()":"444b7aaf","passIdBase()":"80893c17","userToRareIds(address,uint256)":"a8a86457","voucher()":"cdda418c"}},"storageLayout":{"storage":[{"astId":6001,"contract":"contracts/HashPunkStorage.sol:HashPunkStorage","label":"passIdBase","offset":0,"slot":"0","type":"t_uint256"},{"astId":6003,"contract":"contracts/HashPunkStorage.sol:HashPunkStorage","label":"base","offset":0,"slot":"1","type":"t_uint256"},{"astId":6006,"contract":"contracts/HashPunkStorage.sol:HashPunkStorage","label":"hValue","offset":0,"slot":"2","type":"t_contract(IHValue)5990"},{"astId":6008,"contract":"contracts/HashPunkStorage.sol:HashPunkStorage","label":"owner","offset":0,"slot":"3","type":"t_address"},{"astId":6010,"contract":"contracts/HashPunkStorage.sol:HashPunkStorage","label":"baseMetadataURI","offset":0,"slot":"4","type":"t_string_storage"},{"astId":6013,"contract":"contracts/HashPunkStorage.sol:HashPunkStorage","label":"luckyStart","offset":0,"slot":"5","type":"t_uint256"},{"astId":6016,"contract":"contracts/HashPunkStorage.sol:HashPunkStorage","label":"luckyEnd","offset":0,"slot":"6","type":"t_uint256"},{"astId":6021,"contract":"contracts/HashPunkStorage.sol:HashPunkStorage","label":"userToRareIds","offset":0,"slot":"7","type":"t_mapping(t_address,t_array(t_uint256)dyn_storage)"}],"types":{"t_address":{"encoding":"inplace","label":"address","numberOfBytes":"20"},"t_array(t_uint256)dyn_storage":{"base":"t_uint256","encoding":"dynamic_array","label":"uint256[]","numberOfBytes":"32"},"t_contract(IHValue)5990":{"encoding":"inplace","label":"contract IHValue","numberOfBytes":"20"},"t_mapping(t_address,t_array(t_uint256)dyn_storage)":{"encoding":"mapping","key":"t_address","label":"mapping(address => uint256[])","numberOfBytes":"32","value":"t_array(t_uint256)dyn_storage"},"t_string_storage":{"encoding":"bytes","label":"string","numberOfBytes":"32"},"t_uint256":{"encoding":"inplace","label":"uint256","numberOfBytes":"32"}}},"userdoc":{"kind":"user","methods":{},"version":1}}}}