{"contracts/HValueStorage.sol":{"HValueStorage":{"abi":[{"inputs":[],"name":"Hpoint","outputs":[{"internalType":"uint256","name":"","type":"uint256"}],"stateMutability":"view","type":"function"},{"inputs":[],"name":"baseMetadataURI","outputs":[{"internalType":"string","name":"","type":"string"}],"stateMutability":"view","type":"function"},{"inputs":[],"name":"controller","outputs":[{"internalType":"address","name":"","type":"address"}],"stateMutability":"view","type":"function"},{"inputs":[],"name":"currentTimeStamp","outputs":[{"internalType":"uint256","name":"","type":"uint256"}],"stateMutability":"view","type":"function"},{"inputs":[],"name":"exchangeLimit","outputs":[{"internalType":"uint256","name":"","type":"uint256"}],"stateMutability":"view","type":"function"},{"inputs":[{"internalType":"address","name":"","type":"address"}],"name":"exchangeTimes","outputs":[{"internalType":"uint256","name":"","type":"uint256"}],"stateMutability":"view","type":"function"},{"inputs":[],"name":"hashPunk","outputs":[{"internalType":"contract IHashPunk","name":"","type":"address"}],"stateMutability":"view","type":"function"},{"inputs":[],"name":"luckyEnd","outputs":[{"internalType":"uint256","name":"","type":"uint256"}],"stateMutability":"view","type":"function"},{"inputs":[],"name":"luckyStart","outputs":[{"internalType":"uint256","name":"","type":"uint256"}],"stateMutability":"view","type":"function"},{"inputs":[],"name":"name","outputs":[{"internalType":"string","name":"","type":"string"}],"stateMutability":"view","type":"function"},{"inputs":[{"internalType":"address","name":"","type":"address"}],"name":"negtiveValue","outputs":[{"internalType":"uint256","name":"","type":"uint256"}],"stateMutability":"view","type":"function"},{"inputs":[],"name":"owner","outputs":[{"internalType":"address","name":"","type":"address"}],"stateMutability":"view","type":"function"},{"inputs":[],"name":"passId","outputs":[{"internalType":"uint256","name":"","type":"uint256"}],"stateMutability":"view","type":"function"},{"inputs":[],"name":"symbol","outputs":[{"internalType":"string","name":"","type":"string"}],"stateMutability":"view","type":"function"},{"inputs":[],"name":"voucher","outputs":[{"internalType":"uint256","name":"","type":"uint256"}],"stateMutability":"view","type":"function"}],"devdoc":{"kind":"dev","methods":{},"version":1},"evm":{"bytecode":{"linkReferences":{},"object":"60806040526001600755600260085560036009556001600a556101f4600b556003600c5534801561002f57600080fd5b5061039c8061003f6000396000f3fe608060405234801561001057600080fd5b50600436106100f55760003560e01c80638b0bb06911610097578063cdda418c11610066578063cdda418c146101d8578063d717b05e146101e1578063f77c4791146101ea578063f7e056ee146101fd57600080fd5b80638b0bb069146101725780638da5cb5b1461019257806395d89b41146101bd5780639ba138c8146101c557600080fd5b8063444b7aaf116100d3578063444b7aaf146101385780634c25e11f146101415780635b2bd79e1461016157806383d18f7a1461016957600080fd5b806306fdde03146100fa5780630e47152514610118578063340a9a1c1461012f575b600080fd5b610102610206565b60405161010f91906102ae565b60405180910390f35b610121600a5481565b60405190815260200161010f565b61012160055481565b61012160075481565b61012161014f3660046102fc565b600e6020526000908152604090205481565b610102610294565b61012160085481565b6101216101803660046102fc565b600d6020526000908152604090205481565b6002546101a5906001600160a01b031681565b6040516001600160a01b03909116815260200161010f565b6101026102a1565b6004546101a5906001600160a01b031681565b61012160095481565b610121600c5481565b6003546101a5906001600160a01b031681565b610121600b5481565b600080546102139061032c565b80601f016020809104026020016040519081016040528092919081815260200182805461023f9061032c565b801561028c5780601f106102615761010080835404028352916020019161028c565b820191906000526020600020905b81548152906001019060200180831161026f57829003601f168201915b505050505081565b600680546102139061032c565b600180546102139061032c565b600060208083528351808285015260005b818110156102db578581018301518582016040015282016102bf565b506000604082860101526040601f19601f8301168501019250505092915050565b60006020828403121561030e57600080fd5b81356001600160a01b038116811461032557600080fd5b9392505050565b600181811c9082168061034057607f821691505b60208210810361036057634e487b7160e01b600052602260045260246000fd5b5091905056fea26469706673582212208f6831d6fde0f6edfbfb89ff87dc34ae856236895a781b85829d6c56d0dd37a164736f6c63430008110033","opcodes":"PUSH1 0x80 PUSH1 0x40 MSTORE PUSH1 0x1 PUSH1 0x7 SSTORE PUSH1 0x2 PUSH1 0x8 SSTORE PUSH1 0x3 PUSH1 0x9 SSTORE PUSH1 0x1 PUSH1 0xA SSTORE PUSH2 0x1F4 PUSH1 0xB SSTORE PUSH1 0x3 PUSH1 0xC SSTORE CALLVALUE DUP1 ISZERO PUSH2 0x2F JUMPI PUSH1 0x0 DUP1 REVERT JUMPDEST POP PUSH2 0x39C DUP1 PUSH2 0x3F PUSH1 0x0 CODECOPY PUSH1 0x0 RETURN INVALID PUSH1 0x80 PUSH1 0x40 MSTORE CALLVALUE DUP1 ISZERO PUSH2 0x10 JUMPI PUSH1 0x0 DUP1 REVERT JUMPDEST POP PUSH1 0x4 CALLDATASIZE LT PUSH2 0xF5 JUMPI PUSH1 0x0 CALLDATALOAD PUSH1 0xE0 SHR DUP1 PUSH4 0x8B0BB069 GT PUSH2 0x97 JUMPI DUP1 PUSH4 0xCDDA418C GT PUSH2 0x66 JUMPI DUP1 PUSH4 0xCDDA418C EQ PUSH2 0x1D8 JUMPI DUP1 PUSH4 0xD717B05E EQ PUSH2 0x1E1 JUMPI DUP1 PUSH4 0xF77C4791 EQ PUSH2 0x1EA JUMPI DUP1 PUSH4 0xF7E056EE EQ PUSH2 0x1FD JUMPI PUSH1 0x0 DUP1 REVERT JUMPDEST DUP1 PUSH4 0x8B0BB069 EQ PUSH2 0x172 JUMPI DUP1 PUSH4 0x8DA5CB5B EQ PUSH2 0x192 JUMPI DUP1 PUSH4 0x95D89B41 EQ PUSH2 0x1BD JUMPI DUP1 PUSH4 0x9BA138C8 EQ PUSH2 0x1C5 JUMPI PUSH1 0x0 DUP1 REVERT JUMPDEST DUP1 PUSH4 0x444B7AAF GT PUSH2 0xD3 JUMPI DUP1 PUSH4 0x444B7AAF EQ PUSH2 0x138 JUMPI DUP1 PUSH4 0x4C25E11F EQ PUSH2 0x141 JUMPI DUP1 PUSH4 0x5B2BD79E EQ PUSH2 0x161 JUMPI DUP1 PUSH4 0x83D18F7A EQ PUSH2 0x169 JUMPI PUSH1 0x0 DUP1 REVERT JUMPDEST DUP1 PUSH4 0x6FDDE03 EQ PUSH2 0xFA JUMPI DUP1 PUSH4 0xE471525 EQ PUSH2 0x118 JUMPI DUP1 PUSH4 0x340A9A1C EQ PUSH2 0x12F JUMPI JUMPDEST PUSH1 0x0 DUP1 REVERT JUMPDEST PUSH2 0x102 PUSH2 0x206 JUMP JUMPDEST PUSH1 0x40 MLOAD PUSH2 0x10F SWAP2 SWAP1 PUSH2 0x2AE JUMP JUMPDEST PUSH1 0x40 MLOAD DUP1 SWAP2 SUB SWAP1 RETURN JUMPDEST PUSH2 0x121 PUSH1 0xA SLOAD DUP2 JUMP JUMPDEST PUSH1 0x40 MLOAD SWAP1 DUP2 MSTORE PUSH1 0x20 ADD PUSH2 0x10F JUMP JUMPDEST PUSH2 0x121 PUSH1 0x5 SLOAD DUP2 JUMP JUMPDEST PUSH2 0x121 PUSH1 0x7 SLOAD DUP2 JUMP JUMPDEST PUSH2 0x121 PUSH2 0x14F CALLDATASIZE PUSH1 0x4 PUSH2 0x2FC JUMP JUMPDEST PUSH1 0xE PUSH1 0x20 MSTORE PUSH1 0x0 SWAP1 DUP2 MSTORE PUSH1 0x40 SWAP1 KECCAK256 SLOAD DUP2 JUMP JUMPDEST PUSH2 0x102 PUSH2 0x294 JUMP JUMPDEST PUSH2 0x121 PUSH1 0x8 SLOAD DUP2 JUMP JUMPDEST PUSH2 0x121 PUSH2 0x180 CALLDATASIZE PUSH1 0x4 PUSH2 0x2FC JUMP JUMPDEST PUSH1 0xD PUSH1 0x20 MSTORE PUSH1 0x0 SWAP1 DUP2 MSTORE PUSH1 0x40 SWAP1 KECCAK256 SLOAD DUP2 JUMP JUMPDEST PUSH1 0x2 SLOAD PUSH2 0x1A5 SWAP1 PUSH1 0x1 PUSH1 0x1 PUSH1 0xA0 SHL SUB AND DUP2 JUMP JUMPDEST PUSH1 0x40 MLOAD PUSH1 0x1 PUSH1 0x1 PUSH1 0xA0 SHL SUB SWAP1 SWAP2 AND DUP2 MSTORE PUSH1 0x20 ADD PUSH2 0x10F JUMP JUMPDEST PUSH2 0x102 PUSH2 0x2A1 JUMP JUMPDEST PUSH1 0x4 SLOAD PUSH2 0x1A5 SWAP1 PUSH1 0x1 PUSH1 0x1 PUSH1 0xA0 SHL SUB AND DUP2 JUMP JUMPDEST PUSH2 0x121 PUSH1 0x9 SLOAD DUP2 JUMP JUMPDEST PUSH2 0x121 PUSH1 0xC SLOAD DUP2 JUMP JUMPDEST PUSH1 0x3 SLOAD PUSH2 0x1A5 SWAP1 PUSH1 0x1 PUSH1 0x1 PUSH1 0xA0 SHL SUB AND DUP2 JUMP JUMPDEST PUSH2 0x121 PUSH1 0xB SLOAD DUP2 JUMP JUMPDEST PUSH1 0x0 DUP1 SLOAD PUSH2 0x213 SWAP1 PUSH2 0x32C JUMP JUMPDEST DUP1 PUSH1 0x1F ADD PUSH1 0x20 DUP1 SWAP2 DIV MUL PUSH1 0x20 ADD PUSH1 0x40 MLOAD SWAP1 DUP2 ADD PUSH1 0x40 MSTORE DUP1 SWAP3 SWAP2 SWAP1 DUP2 DUP2 MSTORE PUSH1 0x20 ADD DUP3 DUP1 SLOAD PUSH2 0x23F SWAP1 PUSH2 0x32C JUMP JUMPDEST DUP1 ISZERO PUSH2 0x28C JUMPI DUP1 PUSH1 0x1F LT PUSH2 0x261 JUMPI PUSH2 0x100 DUP1 DUP4 SLOAD DIV MUL DUP4 MSTORE SWAP2 PUSH1 0x20 ADD SWAP2 PUSH2 0x28C JUMP JUMPDEST DUP3 ADD SWAP2 SWAP1 PUSH1 0x0 MSTORE PUSH1 0x20 PUSH1 0x0 KECCAK256 SWAP1 JUMPDEST DUP2 SLOAD DUP2 MSTORE SWAP1 PUSH1 0x1 ADD SWAP1 PUSH1 0x20 ADD DUP1 DUP4 GT PUSH2 0x26F JUMPI DUP3 SWAP1 SUB PUSH1 0x1F AND DUP3 ADD SWAP2 JUMPDEST POP POP POP POP POP DUP2 JUMP JUMPDEST PUSH1 0x6 DUP1 SLOAD PUSH2 0x213 SWAP1 PUSH2 0x32C JUMP JUMPDEST PUSH1 0x1 DUP1 SLOAD PUSH2 0x213 SWAP1 PUSH2 0x32C JUMP JUMPDEST PUSH1 0x0 PUSH1 0x20 DUP1 DUP4 MSTORE DUP4 MLOAD DUP1 DUP3 DUP6 ADD MSTORE PUSH1 0x0 JUMPDEST DUP2 DUP2 LT ISZERO PUSH2 0x2DB JUMPI DUP6 DUP2 ADD DUP4 ADD MLOAD DUP6 DUP3 ADD PUSH1 0x40 ADD MSTORE DUP3 ADD PUSH2 0x2BF JUMP JUMPDEST POP PUSH1 0x0 PUSH1 0x40 DUP3 DUP7 ADD ADD MSTORE PUSH1 0x40 PUSH1 0x1F NOT PUSH1 0x1F DUP4 ADD AND DUP6 ADD ADD SWAP3 POP POP POP SWAP3 SWAP2 POP POP JUMP JUMPDEST PUSH1 0x0 PUSH1 0x20 DUP3 DUP5 SUB SLT ISZERO PUSH2 0x30E JUMPI PUSH1 0x0 DUP1 REVERT JUMPDEST DUP2 CALLDATALOAD PUSH1 0x1 PUSH1 0x1 PUSH1 0xA0 SHL SUB DUP2 AND DUP2 EQ PUSH2 0x325 JUMPI PUSH1 0x0 DUP1 REVERT JUMPDEST SWAP4 SWAP3 POP POP POP JUMP JUMPDEST PUSH1 0x1 DUP2 DUP2 SHR SWAP1 DUP3 AND DUP1 PUSH2 0x340 JUMPI PUSH1 0x7F DUP3 AND SWAP2 POP JUMPDEST PUSH1 0x20 DUP3 LT DUP2 SUB PUSH2 0x360 JUMPI PUSH4 0x4E487B71 PUSH1 0xE0 SHL PUSH1 0x0 MSTORE PUSH1 0x22 PUSH1 0x4 MSTORE PUSH1 0x24 PUSH1 0x0 REVERT JUMPDEST POP SWAP2 SWAP1 POP JUMP INVALID LOG2 PUSH5 0x6970667358 0x22 SLT KECCAK256 DUP16 PUSH9 0x31D6FDE0F6EDFBFB89 SELFDESTRUCT DUP8 0xDC CALLVALUE 0xAE DUP6 PUSH3 0x36895A PUSH25 0x1B85829D6C56D0DD37A164736F6C6343000811003300000000 "},"gasEstimates":{"creation":{"codeDepositCost":"184800","executionCost":"132862","totalCost":"317662"},"external":{"Hpoint()":"2384","baseMetadataURI()":"infinite","controller()":"2403","currentTimeStamp()":"2363","exchangeLimit()":"2339","exchangeTimes(address)":"2507","hashPunk()":"2426","luckyEnd()":"2383","luckyStart()":"2341","name()":"infinite","negtiveValue(address)":"2529","owner()":"2382","passId()":"2318","symbol()":"infinite","voucher()":"2317"}},"methodIdentifiers":{"Hpoint()":"83d18f7a","baseMetadataURI()":"5b2bd79e","controller()":"f77c4791","currentTimeStamp()":"340a9a1c","exchangeLimit()":"d717b05e","exchangeTimes(address)":"8b0bb069","hashPunk()":"9ba138c8","luckyEnd()":"f7e056ee","luckyStart()":"0e471525","name()":"06fdde03","negtiveValue(address)":"4c25e11f","owner()":"8da5cb5b","passId()":"444b7aaf","symbol()":"95d89b41","voucher()":"cdda418c"}},"storageLayout":{"storage":[{"astId":5453,"contract":"contracts/HValueStorage.sol:HValueStorage","label":"name","offset":0,"slot":"0","type":"t_string_storage"},{"astId":5455,"contract":"contracts/HValueStorage.sol:HValueStorage","label":"symbol","offset":0,"slot":"1","type":"t_string_storage"},{"astId":5457,"contract":"contracts/HValueStorage.sol:HValueStorage","label":"owner","offset":0,"slot":"2","type":"t_address"},{"astId":5459,"contract":"contracts/HValueStorage.sol:HValueStorage","label":"controller","offset":0,"slot":"3","type":"t_address"},{"astId":5462,"contract":"contracts/HValueStorage.sol:HValueStorage","label":"hashPunk","offset":0,"slot":"4","type":"t_contract(IHashPunk)5451"},{"astId":5464,"contract":"contracts/HValueStorage.sol:HValueStorage","label":"currentTimeStamp","offset":0,"slot":"5","type":"t_uint256"},{"astId":5466,"contract":"contracts/HValueStorage.sol:HValueStorage","label":"baseMetadataURI","offset":0,"slot":"6","type":"t_string_storage"},{"astId":5469,"contract":"contracts/HValueStorage.sol:HValueStorage","label":"passId","offset":0,"slot":"7","type":"t_uint256"},{"astId":5472,"contract":"contracts/HValueStorage.sol:HValueStorage","label":"Hpoint","offset":0,"slot":"8","type":"t_uint256"},{"astId":5475,"contract":"contracts/HValueStorage.sol:HValueStorage","label":"voucher","offset":0,"slot":"9","type":"t_uint256"},{"astId":5478,"contract":"contracts/HValueStorage.sol:HValueStorage","label":"luckyStart","offset":0,"slot":"10","type":"t_uint256"},{"astId":5481,"contract":"contracts/HValueStorage.sol:HValueStorage","label":"luckyEnd","offset":0,"slot":"11","type":"t_uint256"},{"astId":5484,"contract":"contracts/HValueStorage.sol:HValueStorage","label":"exchangeLimit","offset":0,"slot":"12","type":"t_uint256"},{"astId":5488,"contract":"contracts/HValueStorage.sol:HValueStorage","label":"exchangeTimes","offset":0,"slot":"13","type":"t_mapping(t_address,t_uint256)"},{"astId":5492,"contract":"contracts/HValueStorage.sol:HValueStorage","label":"negtiveValue","offset":0,"slot":"14","type":"t_mapping(t_address,t_uint256)"}],"types":{"t_address":{"encoding":"inplace","label":"address","numberOfBytes":"20"},"t_contract(IHashPunk)5451":{"encoding":"inplace","label":"contract IHashPunk","numberOfBytes":"20"},"t_mapping(t_address,t_uint256)":{"encoding":"mapping","key":"t_address","label":"mapping(address => uint256)","numberOfBytes":"32","value":"t_uint256"},"t_string_storage":{"encoding":"bytes","label":"string","numberOfBytes":"32"},"t_uint256":{"encoding":"inplace","label":"uint256","numberOfBytes":"32"}}},"userdoc":{"kind":"user","methods":{},"version":1}}}}