{
  "_format": "hh-sol-artifact-1",
  "contractName": "HashPunkStorage",
  "sourceName": "contracts/HashPunkStorage.sol",
  "abi": [
    {
      "inputs": [],
      "name": "Hpoint",
      "outputs": [
        {
          "internalType": "uint256",
          "name": "",
          "type": "uint256"
        }
      ],
      "stateMutability": "view",
      "type": "function"
    },
    {
      "inputs": [],
      "name": "base",
      "outputs": [
        {
          "internalType": "uint256",
          "name": "",
          "type": "uint256"
        }
      ],
      "stateMutability": "view",
      "type": "function"
    },
    {
      "inputs": [],
      "name": "baseMetadataURI",
      "outputs": [
        {
          "internalType": "string",
          "name": "",
          "type": "string"
        }
      ],
      "stateMutability": "view",
      "type": "function"
    },
    {
      "inputs": [],
      "name": "hValue",
      "outputs": [
        {
          "internalType": "contract IHValue",
          "name": "",
          "type": "address"
        }
      ],
      "stateMutability": "view",
      "type": "function"
    },
    {
      "inputs": [],
      "name": "luckyEnd",
      "outputs": [
        {
          "internalType": "uint256",
          "name": "",
          "type": "uint256"
        }
      ],
      "stateMutability": "view",
      "type": "function"
    },
    {
      "inputs": [],
      "name": "luckyStart",
      "outputs": [
        {
          "internalType": "uint256",
          "name": "",
          "type": "uint256"
        }
      ],
      "stateMutability": "view",
      "type": "function"
    },
    {
      "inputs": [],
      "name": "owner",
      "outputs": [
        {
          "internalType": "address",
          "name": "",
          "type": "address"
        }
      ],
      "stateMutability": "view",
      "type": "function"
    },
    {
      "inputs": [],
      "name": "passId",
      "outputs": [
        {
          "internalType": "uint256",
          "name": "",
          "type": "uint256"
        }
      ],
      "stateMutability": "view",
      "type": "function"
    },
    {
      "inputs": [],
      "name": "passIdBase",
      "outputs": [
        {
          "internalType": "uint256",
          "name": "",
          "type": "uint256"
        }
      ],
      "stateMutability": "view",
      "type": "function"
    },
    {
      "inputs": [
        {
          "internalType": "address",
          "name": "",
          "type": "address"
        },
        {
          "internalType": "uint256",
          "name": "",
          "type": "uint256"
        }
      ],
      "name": "userToRareIds",
      "outputs": [
        {
          "internalType": "uint256",
          "name": "",
          "type": "uint256"
        }
      ],
      "stateMutability": "view",
      "type": "function"
    },
    {
      "inputs": [],
      "name": "voucher",
      "outputs": [
        {
          "internalType": "uint256",
          "name": "",
          "type": "uint256"
        }
      ],
      "stateMutability": "view",
      "type": "function"
    }
  ],
  "bytecode": "0x608060405260016005556101f460065534801561001b57600080fd5b506103188061002b6000396000f3fe608060405234801561001057600080fd5b50600436106100a95760003560e01c806383d18f7a1161007157806383d18f7a146100f95780638da5cb5b146101015780639332c9a51461012c578063a8a864571461013f578063cdda418c14610152578063f7e056ee1461015a57600080fd5b80630e471525146100ae578063444b7aaf146100ca5780635001f3b5146100d25780635b2bd79e146100db57806380893c17146100f0575b600080fd5b6100b760055481565b6040519081526020015b60405180910390f35b6100b7600181565b6100b760015481565b6100e3610163565b6040516100c19190610222565b6100b760005481565b6100b7600281565b600354610114906001600160a01b031681565b6040516001600160a01b0390911681526020016100c1565b600254610114906001600160a01b031681565b6100b761014d366004610270565b6101f1565b6100b7600381565b6100b760065481565b60048054610170906102a8565b80601f016020809104026020016040519081016040528092919081815260200182805461019c906102a8565b80156101e95780601f106101be576101008083540402835291602001916101e9565b820191906000526020600020905b8154815290600101906020018083116101cc57829003601f168201915b505050505081565b6007602052816000526040600020818154811061020d57600080fd5b90600052602060002001600091509150505481565b600060208083528351808285015260005b8181101561024f57858101830151858201604001528201610233565b506000604082860101526040601f19601f8301168501019250505092915050565b6000806040838503121561028357600080fd5b82356001600160a01b038116811461029a57600080fd5b946020939093013593505050565b600181811c908216806102bc57607f821691505b6020821081036102dc57634e487b7160e01b600052602260045260246000fd5b5091905056fea26469706673582212208620cc1759f2c2e66ea3430d44553a29ba64895efb2329ab912f1200e97a935364736f6c63430008110033",
  "linkReferences": {},
  "deployedLinkReferences": {}
}