{
  "_format": "hh-sol-artifact-1",
  "contractName": "HValueStorage",
  "sourceName": "contracts/HValueStorage.sol",
  "abi": [
    {
      "inputs": [],
      "name": "Hpoint",
      "outputs": [
        {
          "internalType": "uint256",
          "name": "",
          "type": "uint256"
        }
      ],
      "stateMutability": "view",
      "type": "function"
    },
    {
      "inputs": [],
      "name": "baseMetadataURI",
      "outputs": [
        {
          "internalType": "string",
          "name": "",
          "type": "string"
        }
      ],
      "stateMutability": "view",
      "type": "function"
    },
    {
      "inputs": [],
      "name": "controller",
      "outputs": [
        {
          "internalType": "address",
          "name": "",
          "type": "address"
        }
      ],
      "stateMutability": "view",
      "type": "function"
    },
    {
      "inputs": [],
      "name": "currentTimeStamp",
      "outputs": [
        {
          "internalType": "uint256",
          "name": "",
          "type": "uint256"
        }
      ],
      "stateMutability": "view",
      "type": "function"
    },
    {
      "inputs": [],
      "name": "exchangeLimit",
      "outputs": [
        {
          "internalType": "uint256",
          "name": "",
          "type": "uint256"
        }
      ],
      "stateMutability": "view",
      "type": "function"
    },
    {
      "inputs": [
        {
          "internalType": "address",
          "name": "",
          "type": "address"
        }
      ],
      "name": "exchangeTimes",
      "outputs": [
        {
          "internalType": "uint256",
          "name": "",
          "type": "uint256"
        }
      ],
      "stateMutability": "view",
      "type": "function"
    },
    {
      "inputs": [],
      "name": "hashPunk",
      "outputs": [
        {
          "internalType": "contract IHashPunk",
          "name": "",
          "type": "address"
        }
      ],
      "stateMutability": "view",
      "type": "function"
    },
    {
      "inputs": [],
      "name": "luckyEnd",
      "outputs": [
        {
          "internalType": "uint256",
          "name": "",
          "type": "uint256"
        }
      ],
      "stateMutability": "view",
      "type": "function"
    },
    {
      "inputs": [],
      "name": "luckyStart",
      "outputs": [
        {
          "internalType": "uint256",
          "name": "",
          "type": "uint256"
        }
      ],
      "stateMutability": "view",
      "type": "function"
    },
    {
      "inputs": [],
      "name": "name",
      "outputs": [
        {
          "internalType": "string",
          "name": "",
          "type": "string"
        }
      ],
      "stateMutability": "view",
      "type": "function"
    },
    {
      "inputs": [
        {
          "internalType": "address",
          "name": "",
          "type": "address"
        }
      ],
      "name": "negtiveValue",
      "outputs": [
        {
          "internalType": "uint256",
          "name": "",
          "type": "uint256"
        }
      ],
      "stateMutability": "view",
      "type": "function"
    },
    {
      "inputs": [],
      "name": "owner",
      "outputs": [
        {
          "internalType": "address",
          "name": "",
          "type": "address"
        }
      ],
      "stateMutability": "view",
      "type": "function"
    },
    {
      "inputs": [],
      "name": "passId",
      "outputs": [
        {
          "internalType": "uint256",
          "name": "",
          "type": "uint256"
        }
      ],
      "stateMutability": "view",
      "type": "function"
    },
    {
      "inputs": [],
      "name": "symbol",
      "outputs": [
        {
          "internalType": "string",
          "name": "",
          "type": "string"
        }
      ],
      "stateMutability": "view",
      "type": "function"
    },
    {
      "inputs": [],
      "name": "voucher",
      "outputs": [
        {
          "internalType": "uint256",
          "name": "",
          "type": "uint256"
        }
      ],
      "stateMutability": "view",
      "type": "function"
    }
  ],
  "bytecode": "0x60806040526001600755600260085560036009556001600a556101f4600b556003600c5534801561002f57600080fd5b5061039c8061003f6000396000f3fe608060405234801561001057600080fd5b50600436106100f55760003560e01c80638b0bb06911610097578063cdda418c11610066578063cdda418c146101d8578063d717b05e146101e1578063f77c4791146101ea578063f7e056ee146101fd57600080fd5b80638b0bb069146101725780638da5cb5b1461019257806395d89b41146101bd5780639ba138c8146101c557600080fd5b8063444b7aaf116100d3578063444b7aaf146101385780634c25e11f146101415780635b2bd79e1461016157806383d18f7a1461016957600080fd5b806306fdde03146100fa5780630e47152514610118578063340a9a1c1461012f575b600080fd5b610102610206565b60405161010f91906102ae565b60405180910390f35b610121600a5481565b60405190815260200161010f565b61012160055481565b61012160075481565b61012161014f3660046102fc565b600e6020526000908152604090205481565b610102610294565b61012160085481565b6101216101803660046102fc565b600d6020526000908152604090205481565b6002546101a5906001600160a01b031681565b6040516001600160a01b03909116815260200161010f565b6101026102a1565b6004546101a5906001600160a01b031681565b61012160095481565b610121600c5481565b6003546101a5906001600160a01b031681565b610121600b5481565b600080546102139061032c565b80601f016020809104026020016040519081016040528092919081815260200182805461023f9061032c565b801561028c5780601f106102615761010080835404028352916020019161028c565b820191906000526020600020905b81548152906001019060200180831161026f57829003601f168201915b505050505081565b600680546102139061032c565b600180546102139061032c565b600060208083528351808285015260005b818110156102db578581018301518582016040015282016102bf565b506000604082860101526040601f19601f8301168501019250505092915050565b60006020828403121561030e57600080fd5b81356001600160a01b038116811461032557600080fd5b9392505050565b600181811c9082168061034057607f821691505b60208210810361036057634e487b7160e01b600052602260045260246000fd5b5091905056fea26469706673582212208f6831d6fde0f6edfbfb89ff87dc34ae856236895a781b85829d6c56d0dd37a164736f6c63430008110033",
  "linkReferences": {},
  "deployedLinkReferences": {}
}