{
  "_format": "hh-sol-artifact-1",
  "contractName": "HashPunk",
  "sourceName": "contracts/HashPunk.sol",
  "abi": [
    {
      "anonymous": false,
      "inputs": [
        {
          "indexed": true,
          "internalType": "address",
          "name": "owner",
          "type": "address"
        },
        {
          "indexed": true,
          "internalType": "address",
          "name": "approved",
          "type": "address"
        },
        {
          "indexed": true,
          "internalType": "uint256",
          "name": "tokenId",
          "type": "uint256"
        }
      ],
      "name": "Approval",
      "type": "event"
    },
    {
      "anonymous": false,
      "inputs": [
        {
          "indexed": true,
          "internalType": "address",
          "name": "owner",
          "type": "address"
        },
        {
          "indexed": true,
          "internalType": "address",
          "name": "operator",
          "type": "address"
        },
        {
          "indexed": false,
          "internalType": "bool",
          "name": "approved",
          "type": "bool"
        }
      ],
      "name": "ApprovalForAll",
      "type": "event"
    },
    {
      "anonymous": false,
      "inputs": [
        {
          "indexed": false,
          "internalType": "uint8",
          "name": "version",
          "type": "uint8"
        }
      ],
      "name": "Initialized",
      "type": "event"
    },
    {
      "anonymous": false,
      "inputs": [
        {
          "indexed": true,
          "internalType": "address",
          "name": "from",
          "type": "address"
        },
        {
          "indexed": true,
          "internalType": "address",
          "name": "to",
          "type": "address"
        },
        {
          "indexed": true,
          "internalType": "uint256",
          "name": "tokenId",
          "type": "uint256"
        }
      ],
      "name": "Transfer",
      "type": "event"
    },
    {
      "inputs": [],
      "name": "Hpoint",
      "outputs": [
        {
          "internalType": "uint256",
          "name": "",
          "type": "uint256"
        }
      ],
      "stateMutability": "view",
      "type": "function"
    },
    {
      "inputs": [
        {
          "internalType": "address",
          "name": "to",
          "type": "address"
        },
        {
          "internalType": "uint256",
          "name": "tokenId",
          "type": "uint256"
        }
      ],
      "name": "approve",
      "outputs": [],
      "stateMutability": "nonpayable",
      "type": "function"
    },
    {
      "inputs": [
        {
          "internalType": "address",
          "name": "owner",
          "type": "address"
        }
      ],
      "name": "balanceOf",
      "outputs": [
        {
          "internalType": "uint256",
          "name": "",
          "type": "uint256"
        }
      ],
      "stateMutability": "view",
      "type": "function"
    },
    {
      "inputs": [],
      "name": "base",
      "outputs": [
        {
          "internalType": "uint256",
          "name": "",
          "type": "uint256"
        }
      ],
      "stateMutability": "view",
      "type": "function"
    },
    {
      "inputs": [],
      "name": "baseMetadataURI",
      "outputs": [
        {
          "internalType": "string",
          "name": "",
          "type": "string"
        }
      ],
      "stateMutability": "view",
      "type": "function"
    },
    {
      "inputs": [
        {
          "internalType": "uint256",
          "name": "tokenId",
          "type": "uint256"
        }
      ],
      "name": "getApproved",
      "outputs": [
        {
          "internalType": "address",
          "name": "",
          "type": "address"
        }
      ],
      "stateMutability": "view",
      "type": "function"
    },
    {
      "inputs": [
        {
          "internalType": "address",
          "name": "user",
          "type": "address"
        }
      ],
      "name": "getUserToRareIds",
      "outputs": [
        {
          "internalType": "uint256[]",
          "name": "",
          "type": "uint256[]"
        }
      ],
      "stateMutability": "view",
      "type": "function"
    },
    {
      "inputs": [],
      "name": "hValue",
      "outputs": [
        {
          "internalType": "contract IHValue",
          "name": "",
          "type": "address"
        }
      ],
      "stateMutability": "view",
      "type": "function"
    },
    {
      "inputs": [
        {
          "internalType": "string",
          "name": "_uri",
          "type": "string"
        },
        {
          "internalType": "address",
          "name": "_hValue",
          "type": "address"
        },
        {
          "internalType": "uint256",
          "name": "_base",
          "type": "uint256"
        },
        {
          "internalType": "uint256",
          "name": "_passIdBase",
          "type": "uint256"
        }
      ],
      "name": "initialize",
      "outputs": [],
      "stateMutability": "nonpayable",
      "type": "function"
    },
    {
      "inputs": [
        {
          "internalType": "address",
          "name": "owner",
          "type": "address"
        },
        {
          "internalType": "address",
          "name": "operator",
          "type": "address"
        }
      ],
      "name": "isApprovedForAll",
      "outputs": [
        {
          "internalType": "bool",
          "name": "",
          "type": "bool"
        }
      ],
      "stateMutability": "view",
      "type": "function"
    },
    {
      "inputs": [],
      "name": "luckyEnd",
      "outputs": [
        {
          "internalType": "uint256",
          "name": "",
          "type": "uint256"
        }
      ],
      "stateMutability": "view",
      "type": "function"
    },
    {
      "inputs": [],
      "name": "luckyStart",
      "outputs": [
        {
          "internalType": "uint256",
          "name": "",
          "type": "uint256"
        }
      ],
      "stateMutability": "view",
      "type": "function"
    },
    {
      "inputs": [],
      "name": "maxSupply",
      "outputs": [
        {
          "internalType": "uint256",
          "name": "",
          "type": "uint256"
        }
      ],
      "stateMutability": "view",
      "type": "function"
    },
    {
      "inputs": [
        {
          "internalType": "uint256",
          "name": "id",
          "type": "uint256"
        },
        {
          "internalType": "uint256",
          "name": "amount",
          "type": "uint256"
        }
      ],
      "name": "mint",
      "outputs": [],
      "stateMutability": "nonpayable",
      "type": "function"
    },
    {
      "inputs": [],
      "name": "name",
      "outputs": [
        {
          "internalType": "string",
          "name": "",
          "type": "string"
        }
      ],
      "stateMutability": "view",
      "type": "function"
    },
    {
      "inputs": [],
      "name": "owner",
      "outputs": [
        {
          "internalType": "address",
          "name": "",
          "type": "address"
        }
      ],
      "stateMutability": "view",
      "type": "function"
    },
    {
      "inputs": [
        {
          "internalType": "uint256",
          "name": "tokenId",
          "type": "uint256"
        }
      ],
      "name": "ownerOf",
      "outputs": [
        {
          "internalType": "address",
          "name": "",
          "type": "address"
        }
      ],
      "stateMutability": "view",
      "type": "function"
    },
    {
      "inputs": [],
      "name": "passId",
      "outputs": [
        {
          "internalType": "uint256",
          "name": "",
          "type": "uint256"
        }
      ],
      "stateMutability": "view",
      "type": "function"
    },
    {
      "inputs": [],
      "name": "passIdBase",
      "outputs": [
        {
          "internalType": "uint256",
          "name": "",
          "type": "uint256"
        }
      ],
      "stateMutability": "view",
      "type": "function"
    },
    {
      "inputs": [
        {
          "internalType": "address",
          "name": "from",
          "type": "address"
        },
        {
          "internalType": "address",
          "name": "to",
          "type": "address"
        },
        {
          "internalType": "uint256",
          "name": "tokenId",
          "type": "uint256"
        }
      ],
      "name": "safeTransferFrom",
      "outputs": [],
      "stateMutability": "nonpayable",
      "type": "function"
    },
    {
      "inputs": [
        {
          "internalType": "address",
          "name": "from",
          "type": "address"
        },
        {
          "internalType": "address",
          "name": "to",
          "type": "address"
        },
        {
          "internalType": "uint256",
          "name": "tokenId",
          "type": "uint256"
        },
        {
          "internalType": "bytes",
          "name": "_data",
          "type": "bytes"
        }
      ],
      "name": "safeTransferFrom",
      "outputs": [],
      "stateMutability": "nonpayable",
      "type": "function"
    },
    {
      "inputs": [
        {
          "internalType": "address",
          "name": "operator",
          "type": "address"
        },
        {
          "internalType": "bool",
          "name": "approved",
          "type": "bool"
        }
      ],
      "name": "setApprovalForAll",
      "outputs": [],
      "stateMutability": "nonpayable",
      "type": "function"
    },
    {
      "inputs": [
        {
          "internalType": "uint256",
          "name": "_base",
          "type": "uint256"
        }
      ],
      "name": "setBase",
      "outputs": [],
      "stateMutability": "nonpayable",
      "type": "function"
    },
    {
      "inputs": [
        {
          "internalType": "string",
          "name": "baseUri",
          "type": "string"
        }
      ],
      "name": "setBaseUri",
      "outputs": [],
      "stateMutability": "nonpayable",
      "type": "function"
    },
    {
      "inputs": [
        {
          "internalType": "contract IHValue",
          "name": "_hValue",
          "type": "address"
        }
      ],
      "name": "setHValue",
      "outputs": [],
      "stateMutability": "nonpayable",
      "type": "function"
    },
    {
      "inputs": [
        {
          "internalType": "uint256",
          "name": "_passIdBase",
          "type": "uint256"
        }
      ],
      "name": "setPassIdBase",
      "outputs": [],
      "stateMutability": "nonpayable",
      "type": "function"
    },
    {
      "inputs": [
        {
          "internalType": "bytes4",
          "name": "interfaceId",
          "type": "bytes4"
        }
      ],
      "name": "supportsInterface",
      "outputs": [
        {
          "internalType": "bool",
          "name": "",
          "type": "bool"
        }
      ],
      "stateMutability": "view",
      "type": "function"
    },
    {
      "inputs": [],
      "name": "symbol",
      "outputs": [
        {
          "internalType": "string",
          "name": "",
          "type": "string"
        }
      ],
      "stateMutability": "view",
      "type": "function"
    },
    {
      "inputs": [
        {
          "internalType": "uint256",
          "name": "tokenId",
          "type": "uint256"
        }
      ],
      "name": "tokenURI",
      "outputs": [
        {
          "internalType": "string",
          "name": "",
          "type": "string"
        }
      ],
      "stateMutability": "view",
      "type": "function"
    },
    {
      "inputs": [],
      "name": "totalSupply",
      "outputs": [
        {
          "internalType": "uint256",
          "name": "",
          "type": "uint256"
        }
      ],
      "stateMutability": "view",
      "type": "function"
    },
    {
      "inputs": [
        {
          "internalType": "address",
          "name": "from",
          "type": "address"
        },
        {
          "internalType": "address",
          "name": "to",
          "type": "address"
        },
        {
          "internalType": "uint256",
          "name": "tokenId",
          "type": "uint256"
        }
      ],
      "name": "transferFrom",
      "outputs": [],
      "stateMutability": "nonpayable",
      "type": "function"
    },
    {
      "inputs": [
        {
          "internalType": "address",
          "name": "",
          "type": "address"
        },
        {
          "internalType": "uint256",
          "name": "",
          "type": "uint256"
        }
      ],
      "name": "userToRareIds",
      "outputs": [
        {
          "internalType": "uint256",
          "name": "",
          "type": "uint256"
        }
      ],
      "stateMutability": "view",
      "type": "function"
    },
    {
      "inputs": [],
      "name": "voucher",
      "outputs": [
        {
          "internalType": "uint256",
          "name": "",
          "type": "uint256"
        }
      ],
      "stateMutability": "view",
      "type": "function"
    }
  ],
  "bytecode": "0x608060405260016073556101f460745534801561001b57600080fd5b506125d98061002b6000396000f3fe608060405234801561001057600080fd5b50600436106101fb5760003560e01c806370a082311161011a578063a22cb465116100ad578063c87b56dd1161007c578063c87b56dd14610421578063cdda418c14610434578063d5abeb011461043c578063e985e9c514610444578063f7e056ee1461045757600080fd5b8063a22cb465146103c8578063a8a86457146103db578063b88d4fde146103ee578063bfc524431461040157600080fd5b80638da5cb5b116100e95780638da5cb5b146103875780639332c9a51461039a57806395d89b41146103ad578063a0bcfc7f146103b557600080fd5b806370a082311461035057806380893c171461036357806383d18f7a1461036c57806389be0ad11461037457600080fd5b80631e214f0611610192578063444b7aaf11610161578063444b7aaf1461030e5780635001f3b5146103165780635b2bd79e1461031f5780636352211e1461032757600080fd5b80631e214f06146102c257806323b872dd146102d557806338e80f68146102e857806342842e0e146102fb57600080fd5b8063095ea7b3116101ce578063095ea7b31461027d5780630e4715251461029057806318160ddd146102a75780631b2ef1ca146102af57600080fd5b80630178f6b91461020057806301ffc9a71461021557806306fdde031461023d578063081812fc14610252575b600080fd5b61021361020e366004611d78565b610460565b005b610228610223366004611db2565b6104b5565b60405190151581526020015b60405180910390f35b610245610507565b6040516102349190611e1f565b610265610260366004611e32565b610599565b6040516001600160a01b039091168152602001610234565b61021361028b366004611e4b565b61062e565b61029960735481565b604051908152602001610234565b610299610741565b6102136102bd366004611e77565b610758565b6102136102d0366004611f45565b610cbe565b6102136102e3366004611fa4565b610e56565b6102136102f6366004611e32565b610e87565b610213610309366004611fa4565b610eb6565b610299600181565b610299606f5481565b610245610ed1565b610265610335366004611e32565b6000908152606a60205260409020546001600160a01b031690565b61029961035e366004611d78565b610f5f565b610299606e5481565b610299600281565b610213610382366004611e32565b610fe6565b607154610265906001600160a01b031681565b607054610265906001600160a01b031681565b610245611015565b6102136103c3366004611fe5565b611024565b6102136103d636600461201a565b61105e565b6102996103e9366004611e4b565b611069565b6102136103fc366004612058565b61109a565b61041461040f366004611d78565b6110d2565b60405161023491906120d8565b61024561042f366004611e32565b61113e565b610299600381565b606954610299565b61022861045236600461211c565b611172565b61029960745481565b6071546001600160a01b031633146104935760405162461bcd60e51b815260040161048a9061214a565b60405180910390fd5b607080546001600160a01b0319166001600160a01b0392909216919091179055565b60006001600160e01b031982166380ac58cd60e01b14806104e657506001600160e01b03198216635b5e139f60e01b145b8061050157506301ffc9a760e01b6001600160e01b03198316145b92915050565b6060606580546105169061218b565b80601f01602080910402602001604051908101604052809291908181526020018280546105429061218b565b801561058f5780601f106105645761010080835404028352916020019161058f565b820191906000526020600020905b81548152906001019060200180831161057257829003601f168201915b5050505050905090565b6000818152606a60205260408120546001600160a01b03166106125760405162461bcd60e51b815260206004820152602c60248201527f4552433732313a20617070726f76656420717565727920666f72206e6f6e657860448201526b34b9ba32b73a103a37b5b2b760a11b606482015260840161048a565b506000908152606c60205260409020546001600160a01b031690565b6000818152606a60205260409020546001600160a01b039081169083168190036106a45760405162461bcd60e51b815260206004820152602160248201527f4552433732313a20617070726f76616c20746f2063757272656e74206f776e656044820152603960f91b606482015260840161048a565b336001600160a01b03821614806106c057506106c08133611172565b6107325760405162461bcd60e51b815260206004820152603860248201527f4552433732313a20617070726f76652063616c6c6572206973206e6f74206f7760448201527f6e6572206e6f7220617070726f76656420666f7220616c6c0000000000000000606482015260840161048a565b61073c83836111a0565b505050565b600060685460695461075391906121db565b905090565b3233146107815760405162461bcd60e51b8152602060048201526000602482015260440161048a565b60018214806107905750600282145b6107c95760405162461bcd60e51b815260206004820152600a6024820152691a5b9d985b1a59081a5960b21b604482015260640161048a565b600182036109b45780606e546107df91906121ee565b607054604051627eeac760e11b8152336004820152600160248201526001600160a01b039091169062fdd58e90604401602060405180830381865afa15801561082c573d6000803e3d6000fd5b505050506040513d601f19601f820116820180604052508101906108509190612205565b101561089e5760405162461bcd60e51b815260206004820152601e60248201527f696e73756666696369656e74205061737320436172642062616c616e63650000604482015260640161048a565b607054606e546001600160a01b039091169063f5298aca9033906001906108c69086906121ee565b6040516001600160e01b031960e086901b1681526001600160a01b03909316600484015260248301919091526044820152606401600060405180830381600087803b15801561091457600080fd5b505af1158015610928573d6000803e3d6000fd5b505050506109363382611207565b5060705460405163731133e960e01b8152336004820152600360248201526044810183905260806064820152600060848201526001600160a01b039091169063731133e99060a401600060405180830381600087803b15801561099857600080fd5b505af11580156109ac573d6000803e3d6000fd5b505050505050565b80606f546109c291906121ee565b607054604051634c25e11f60e01b81523360048201526001600160a01b0390911690634c25e11f90602401602060405180830381865afa158015610a0a573d6000803e3d6000fd5b505050506040513d601f19601f82011682018060405250810190610a2e9190612205565b607054604051627eeac760e11b8152336004820152600260248201526001600160a01b039091169062fdd58e90604401602060405180830381865afa158015610a7b573d6000803e3d6000fd5b505050506040513d601f19601f82011682018060405250810190610a9f9190612205565b610aa991906121db565b1015610af75760405162461bcd60e51b815260206004820152601b60248201527f696e73756666696369656e74204856616c75652062616c616e63650000000000604482015260640161048a565b607054606f546001600160a01b039091169063f5298aca903390600290610b1f9086906121ee565b6040516001600160e01b031960e086901b1681526001600160a01b03909316600484015260248301919091526044820152606401600060405180830381600087803b158015610b6d57600080fd5b505af1158015610b81573d6000803e3d6000fd5b505050506000610b913383611207565b905060005b8151811015610c3f57607354828281518110610bb457610bb461221e565b602002602001015110158015610be55750607454828281518110610bda57610bda61221e565b602002602001015111155b15610c2d573360009081526075602052604090208251839083908110610c0d57610c0d61221e565b602090810291909101810151825460018101845560009384529190922001555b80610c3781612234565b915050610b96565b5060705460405163731133e960e01b8152336004820152600360248201526001604482015260806064820152600060848201526001600160a01b039091169063731133e99060a401600060405180830381600087803b158015610ca157600080fd5b505af1158015610cb5573d6000803e3d6000fd5b50505050505050565b600054610100900460ff1615808015610cde5750600054600160ff909116105b80610cf85750303b158015610cf8575060005460ff166001145b610d5b5760405162461bcd60e51b815260206004820152602e60248201527f496e697469616c697a61626c653a20636f6e747261637420697320616c72656160448201526d191e481a5b9a5d1a585b1a5e995960921b606482015260840161048a565b6000805460ff191660011790558015610d7e576000805461ff0019166101001790555b610dc5604051806040016040528060088152602001674861736850756e6b60c01b81525060405180604001604052806002815260200161048560f41b815250610bb8611452565b606e829055606f839055607080546001600160a01b0319166001600160a01b0386161790556072610df68682612293565b50607180546001600160a01b031916331790558015610e4f576000805461ff0019169055604051600181527f7f26b83ff96e1f2b6a682f133852f6798a09c465da95921460cefb38474024989060200160405180910390a15b5050505050565b610e603382611484565b610e7c5760405162461bcd60e51b815260040161048a90612353565b61073c838383611572565b6071546001600160a01b03163314610eb15760405162461bcd60e51b815260040161048a9061214a565b606f55565b61073c8383836040518060200160405280600081525061109a565b60728054610ede9061218b565b80601f0160208091040260200160405190810160405280929190818152602001828054610f0a9061218b565b8015610f575780601f10610f2c57610100808354040283529160200191610f57565b820191906000526020600020905b815481529060010190602001808311610f3a57829003601f168201915b505050505081565b60006001600160a01b038216610fca5760405162461bcd60e51b815260206004820152602a60248201527f4552433732313a2062616c616e636520717565727920666f7220746865207a65604482015269726f206164647265737360b01b606482015260840161048a565b506001600160a01b03166000908152606b602052604090205490565b6071546001600160a01b031633146110105760405162461bcd60e51b815260040161048a9061214a565b606e55565b6060606680546105169061218b565b6071546001600160a01b0316331461104e5760405162461bcd60e51b815260040161048a9061214a565b607261105a8282612293565b5050565b61105a338383611719565b6075602052816000526040600020818154811061108557600080fd5b90600052602060002001600091509150505481565b6110a43383611484565b6110c05760405162461bcd60e51b815260040161048a90612353565b6110cc848484846117e7565b50505050565b6001600160a01b03811660009081526075602090815260409182902080548351818402810184019094528084526060939283018282801561113257602002820191906000526020600020905b81548152602001906001019080831161111e575b50505050509050919050565b6060607261114b8361181a565b60405160200161115c9291906123a4565b6040516020818303038152906040529050919050565b6001600160a01b039182166000908152606d6020908152604080832093909416825291909152205460ff1690565b6000818152606c6020908152604080832080546001600160a01b0319166001600160a01b03878116918217909255606a909352818420549151859492909116917f8c5be1e5ebec7d5bd14f71427d1e84f3dd0314c0f7b2291e5b200ac8c7c3b92591a45050565b60603332146112505760405162461bcd60e51b815260206004820152601560248201527410dbdb9d1c9858dd1cc818d85b9b9bdd081b5a5b9d605a1b604482015260640161048a565b6001600160a01b0383166112a65760405162461bcd60e51b815260206004820181905260248201527f4552433732313a206d696e7420746f20746865207a65726f2061646472657373604482015260640161048a565b600082116113075760405162461bcd60e51b815260206004820152602860248201527f455243373231723a206e65656420746f206d696e74206174206c65617374206f6044820152673732903a37b5b2b760c11b606482015260840161048a565b81606854101561136d5760405162461bcd60e51b815260206004820152602b60248201527f455243373231723a206d696e74696e67206d6f726520746f6b656e732074686160448201526a6e20617661696c61626c6560a81b606482015260840161048a565b60685460008367ffffffffffffffff81111561138b5761138b611e99565b6040519080825280602002602001820160405280156113b4578160200160208202803683370190505b50905060005b848110156114165760006113ce8785611946565b9050808383815181106113e3576113e361221e565b6020026020010181815250506113f987826119d8565b6114028461242b565b9350508061140f90612234565b90506113ba565b5060688290556001600160a01b0385166000908152606b602052604081208054869290611444908490612442565b909155509095945050505050565b600054610100900460ff166114795760405162461bcd60e51b815260040161048a90612455565b61073c838383611a3d565b6000818152606a60205260408120546001600160a01b03166114fd5760405162461bcd60e51b815260206004820152602c60248201527f4552433732313a206f70657261746f7220717565727920666f72206e6f6e657860448201526b34b9ba32b73a103a37b5b2b760a11b606482015260840161048a565b6070546001600160a01b0316330361151757506001610501565b6000828152606a60205260409020546001600160a01b0390811690841681148061155a5750836001600160a01b031661154f84610599565b6001600160a01b0316145b8061156a575061156a8185611172565b949350505050565b6000818152606a60205260409020546001600160a01b038481169116146115e95760405162461bcd60e51b815260206004820152602560248201527f4552433732313a207472616e736665722066726f6d20696e636f72726563742060448201526437bbb732b960d91b606482015260840161048a565b6001600160a01b03821661164b5760405162461bcd60e51b8152602060048201526024808201527f4552433732313a207472616e7366657220746f20746865207a65726f206164646044820152637265737360e01b606482015260840161048a565b611656838383611a8a565b6116616000826111a0565b6001600160a01b0383166000908152606b6020526040812080546001929061168a9084906121db565b90915550506001600160a01b0382166000908152606b602052604081208054600192906116b8908490612442565b90915550506000818152606a602052604080822080546001600160a01b0319166001600160a01b0386811691821790925591518493918716917fddf252ad1be2c89b69c2b068fc378daa952ba7f163c4a11628f55a4df523b3ef91a4505050565b816001600160a01b0316836001600160a01b03160361177a5760405162461bcd60e51b815260206004820152601960248201527f4552433732313a20617070726f766520746f2063616c6c657200000000000000604482015260640161048a565b6001600160a01b038381166000818152606d6020908152604080832094871680845294825291829020805460ff191686151590811790915591519182527f17307eab39ab6107e8899845ad3d59bd9653f200f220920489ca2b5937696c31910160405180910390a3505050565b6117f2848484611572565b6117fe84848484611bc7565b6110cc5760405162461bcd60e51b815260040161048a906124a0565b6060816000036118415750506040805180820190915260018152600360fc1b602082015290565b8160005b811561186b578061185581612234565b91506118649050600a83612508565b9150611845565b60008167ffffffffffffffff81111561188657611886611e99565b6040519080825280601f01601f1916602001820160405280156118b0576020820181803683370190505b509050815b851561193d576118c66001826121db565b905060006118d5600a88612508565b6118e090600a6121ee565b6118ea90886121db565b6118f590603061251c565b905060008160f81b9050808484815181106119125761191261221e565b60200101906001600160f81b031916908160001a905350611934600a89612508565b975050506118b5565b50949350505050565b600080833a4342446119596001846121db565b604080516001600160a01b0390971660208801528601949094526060850192909252608084015260a08301524060c08201523060e082015261010081018490526101200160408051601f198184030181529190528051602090910120905060006119c38483612535565b90506119cf8185611cc8565b95945050505050565b6119e460008383611a8a565b6000818152606a602052604080822080546001600160a01b0319166001600160a01b03861690811790915590518392907fddf252ad1be2c89b69c2b068fc378daa952ba7f163c4a11628f55a4df523b3ef908290a45050565b600054610100900460ff16611a645760405162461bcd60e51b815260040161048a90612455565b6065611a708482612293565b506066611a7d8382612293565b5060698190556068555050565b6001600160a01b0383161561073c576001600160a01b038316600090815260756020526040812054905b81811015610e4f576001600160a01b0385166000908152607560205260409020805484919083908110611ae957611ae961221e565b906000526020600020015403611bb5576001600160a01b0384166000908152607560205260409020805484919083908110611b2657611b2661221e565b60009182526020808320909101929092556001600160a01b0387168152607590915260409020611b576001846121db565b81548110611b6757611b6761221e565b906000526020600020015460756000876001600160a01b03166001600160a01b031681526020019081526020016000208281548110611ba857611ba861221e565b6000918252602090912001555b80611bbf81612234565b915050611ab4565b60006001600160a01b0384163b15611cbd57604051630a85bd0160e11b81526001600160a01b0385169063150b7a0290611c0b903390899088908890600401612549565b6020604051808303816000875af1925050508015611c46575060408051601f3d908101601f19168201909252611c4391810190612586565b60015b611ca3573d808015611c74576040519150601f19603f3d011682016040523d82523d6000602084013e611c79565b606091505b508051600003611c9b5760405162461bcd60e51b815260040161048a906124a0565b805181602001fd5b6001600160e01b031916630a85bd0160e11b14905061156a565b506001949350505050565b60008281526067602052604081205481818103611ce6575083611ce9565b50805b6000611cf66001866121db565b600081815260676020526040902054909150868214611d3f5780600003611d2d576000878152606760205260409020829055611d3f565b60008781526067602052604090208190555b8015611d55576000828152606760205260408120555b509095945050505050565b6001600160a01b0381168114611d7557600080fd5b50565b600060208284031215611d8a57600080fd5b8135611d9581611d60565b9392505050565b6001600160e01b031981168114611d7557600080fd5b600060208284031215611dc457600080fd5b8135611d9581611d9c565b60005b83811015611dea578181015183820152602001611dd2565b50506000910152565b60008151808452611e0b816020860160208601611dcf565b601f01601f19169290920160200192915050565b602081526000611d956020830184611df3565b600060208284031215611e4457600080fd5b5035919050565b60008060408385031215611e5e57600080fd5b8235611e6981611d60565b946020939093013593505050565b60008060408385031215611e8a57600080fd5b50508035926020909101359150565b634e487b7160e01b600052604160045260246000fd5b600067ffffffffffffffff80841115611eca57611eca611e99565b604051601f8501601f19908116603f01168101908282118183101715611ef257611ef2611e99565b81604052809350858152868686011115611f0b57600080fd5b858560208301376000602087830101525050509392505050565b600082601f830112611f3657600080fd5b611d9583833560208501611eaf565b60008060008060808587031215611f5b57600080fd5b843567ffffffffffffffff811115611f7257600080fd5b611f7e87828801611f25565b9450506020850135611f8f81611d60565b93969395505050506040820135916060013590565b600080600060608486031215611fb957600080fd5b8335611fc481611d60565b92506020840135611fd481611d60565b929592945050506040919091013590565b600060208284031215611ff757600080fd5b813567ffffffffffffffff81111561200e57600080fd5b61156a84828501611f25565b6000806040838503121561202d57600080fd5b823561203881611d60565b91506020830135801515811461204d57600080fd5b809150509250929050565b6000806000806080858703121561206e57600080fd5b843561207981611d60565b9350602085013561208981611d60565b925060408501359150606085013567ffffffffffffffff8111156120ac57600080fd5b8501601f810187136120bd57600080fd5b6120cc87823560208401611eaf565b91505092959194509250565b6020808252825182820181905260009190848201906040850190845b81811015612110578351835292840192918401916001016120f4565b50909695505050505050565b6000806040838503121561212f57600080fd5b823561213a81611d60565b9150602083013561204d81611d60565b60208082526021908201527f4861736850756e6b3a2063616c6c6572206973206e6f7420746865206f776e656040820152603960f91b606082015260800190565b600181811c9082168061219f57607f821691505b6020821081036121bf57634e487b7160e01b600052602260045260246000fd5b50919050565b634e487b7160e01b600052601160045260246000fd5b81810381811115610501576105016121c5565b8082028115828204841417610501576105016121c5565b60006020828403121561221757600080fd5b5051919050565b634e487b7160e01b600052603260045260246000fd5b600060018201612246576122466121c5565b5060010190565b601f82111561073c57600081815260208120601f850160051c810160208610156122745750805b601f850160051c820191505b818110156109ac57828155600101612280565b815167ffffffffffffffff8111156122ad576122ad611e99565b6122c1816122bb845461218b565b8461224d565b602080601f8311600181146122f657600084156122de5750858301515b600019600386901b1c1916600185901b1785556109ac565b600085815260208120601f198616915b8281101561232557888601518255948401946001909101908401612306565b50858210156123435787850151600019600388901b60f8161c191681555b5050505050600190811b01905550565b60208082526031908201527f4552433732313a207472616e736665722063616c6c6572206973206e6f74206f6040820152701ddb995c881b9bdc88185c1c1c9bdd9959607a1b606082015260800190565b60008084546123b28161218b565b600182811680156123ca57600181146123df5761240e565b60ff198416875282151583028701945061240e565b8860005260208060002060005b858110156124055781548a8201529084019082016123ec565b50505082870194505b505050508351612422818360208801611dcf565b01949350505050565b60008161243a5761243a6121c5565b506000190190565b80820180821115610501576105016121c5565b6020808252602b908201527f496e697469616c697a61626c653a20636f6e7472616374206973206e6f74206960408201526a6e697469616c697a696e6760a81b606082015260800190565b60208082526032908201527f4552433732313a207472616e7366657220746f206e6f6e20455243373231526560408201527131b2b4bb32b91034b6b83632b6b2b73a32b960711b606082015260800190565b634e487b7160e01b600052601260045260246000fd5b600082612517576125176124f2565b500490565b60ff8181168382160190811115610501576105016121c5565b600082612544576125446124f2565b500690565b6001600160a01b038581168252841660208201526040810183905260806060820181905260009061257c90830184611df3565b9695505050505050565b60006020828403121561259857600080fd5b8151611d9581611d9c56fea2646970667358221220b76ee0258b1e52bb00418fcc04e8510af0fe8112da906a459cf3b44deacb4dcd64736f6c63430008110033",
  "linkReferences": {},
  "deployedLinkReferences": {}
}