{
  "_format": "hh-sol-artifact-1",
  "contractName": "ERC721rUpgradeable",
  "sourceName": "contracts/ERC721rUpgradeable.sol",
  "abi": [
    {
      "anonymous": false,
      "inputs": [
        {
          "indexed": true,
          "internalType": "address",
          "name": "owner",
          "type": "address"
        },
        {
          "indexed": true,
          "internalType": "address",
          "name": "approved",
          "type": "address"
        },
        {
          "indexed": true,
          "internalType": "uint256",
          "name": "tokenId",
          "type": "uint256"
        }
      ],
      "name": "Approval",
      "type": "event"
    },
    {
      "anonymous": false,
      "inputs": [
        {
          "indexed": true,
          "internalType": "address",
          "name": "owner",
          "type": "address"
        },
        {
          "indexed": true,
          "internalType": "address",
          "name": "operator",
          "type": "address"
        },
        {
          "indexed": false,
          "internalType": "bool",
          "name": "approved",
          "type": "bool"
        }
      ],
      "name": "ApprovalForAll",
      "type": "event"
    },
    {
      "anonymous": false,
      "inputs": [
        {
          "indexed": false,
          "internalType": "uint8",
          "name": "version",
          "type": "uint8"
        }
      ],
      "name": "Initialized",
      "type": "event"
    },
    {
      "anonymous": false,
      "inputs": [
        {
          "indexed": true,
          "internalType": "address",
          "name": "from",
          "type": "address"
        },
        {
          "indexed": true,
          "internalType": "address",
          "name": "to",
          "type": "address"
        },
        {
          "indexed": true,
          "internalType": "uint256",
          "name": "tokenId",
          "type": "uint256"
        }
      ],
      "name": "Transfer",
      "type": "event"
    },
    {
      "inputs": [
        {
          "internalType": "address",
          "name": "to",
          "type": "address"
        },
        {
          "internalType": "uint256",
          "name": "tokenId",
          "type": "uint256"
        }
      ],
      "name": "approve",
      "outputs": [],
      "stateMutability": "nonpayable",
      "type": "function"
    },
    {
      "inputs": [
        {
          "internalType": "address",
          "name": "owner",
          "type": "address"
        }
      ],
      "name": "balanceOf",
      "outputs": [
        {
          "internalType": "uint256",
          "name": "",
          "type": "uint256"
        }
      ],
      "stateMutability": "view",
      "type": "function"
    },
    {
      "inputs": [
        {
          "internalType": "uint256",
          "name": "tokenId",
          "type": "uint256"
        }
      ],
      "name": "getApproved",
      "outputs": [
        {
          "internalType": "address",
          "name": "",
          "type": "address"
        }
      ],
      "stateMutability": "view",
      "type": "function"
    },
    {
      "inputs": [
        {
          "internalType": "address",
          "name": "owner",
          "type": "address"
        },
        {
          "internalType": "address",
          "name": "operator",
          "type": "address"
        }
      ],
      "name": "isApprovedForAll",
      "outputs": [
        {
          "internalType": "bool",
          "name": "",
          "type": "bool"
        }
      ],
      "stateMutability": "view",
      "type": "function"
    },
    {
      "inputs": [],
      "name": "maxSupply",
      "outputs": [
        {
          "internalType": "uint256",
          "name": "",
          "type": "uint256"
        }
      ],
      "stateMutability": "view",
      "type": "function"
    },
    {
      "inputs": [],
      "name": "name",
      "outputs": [
        {
          "internalType": "string",
          "name": "",
          "type": "string"
        }
      ],
      "stateMutability": "view",
      "type": "function"
    },
    {
      "inputs": [
        {
          "internalType": "uint256",
          "name": "tokenId",
          "type": "uint256"
        }
      ],
      "name": "ownerOf",
      "outputs": [
        {
          "internalType": "address",
          "name": "",
          "type": "address"
        }
      ],
      "stateMutability": "view",
      "type": "function"
    },
    {
      "inputs": [
        {
          "internalType": "address",
          "name": "from",
          "type": "address"
        },
        {
          "internalType": "address",
          "name": "to",
          "type": "address"
        },
        {
          "internalType": "uint256",
          "name": "tokenId",
          "type": "uint256"
        }
      ],
      "name": "safeTransferFrom",
      "outputs": [],
      "stateMutability": "nonpayable",
      "type": "function"
    },
    {
      "inputs": [
        {
          "internalType": "address",
          "name": "from",
          "type": "address"
        },
        {
          "internalType": "address",
          "name": "to",
          "type": "address"
        },
        {
          "internalType": "uint256",
          "name": "tokenId",
          "type": "uint256"
        },
        {
          "internalType": "bytes",
          "name": "_data",
          "type": "bytes"
        }
      ],
      "name": "safeTransferFrom",
      "outputs": [],
      "stateMutability": "nonpayable",
      "type": "function"
    },
    {
      "inputs": [
        {
          "internalType": "address",
          "name": "operator",
          "type": "address"
        },
        {
          "internalType": "bool",
          "name": "approved",
          "type": "bool"
        }
      ],
      "name": "setApprovalForAll",
      "outputs": [],
      "stateMutability": "nonpayable",
      "type": "function"
    },
    {
      "inputs": [
        {
          "internalType": "bytes4",
          "name": "interfaceId",
          "type": "bytes4"
        }
      ],
      "name": "supportsInterface",
      "outputs": [
        {
          "internalType": "bool",
          "name": "",
          "type": "bool"
        }
      ],
      "stateMutability": "view",
      "type": "function"
    },
    {
      "inputs": [],
      "name": "symbol",
      "outputs": [
        {
          "internalType": "string",
          "name": "",
          "type": "string"
        }
      ],
      "stateMutability": "view",
      "type": "function"
    },
    {
      "inputs": [
        {
          "internalType": "uint256",
          "name": "tokenId",
          "type": "uint256"
        }
      ],
      "name": "tokenURI",
      "outputs": [
        {
          "internalType": "string",
          "name": "",
          "type": "string"
        }
      ],
      "stateMutability": "view",
      "type": "function"
    },
    {
      "inputs": [],
      "name": "totalSupply",
      "outputs": [
        {
          "internalType": "uint256",
          "name": "",
          "type": "uint256"
        }
      ],
      "stateMutability": "view",
      "type": "function"
    },
    {
      "inputs": [
        {
          "internalType": "address",
          "name": "from",
          "type": "address"
        },
        {
          "internalType": "address",
          "name": "to",
          "type": "address"
        },
        {
          "internalType": "uint256",
          "name": "tokenId",
          "type": "uint256"
        }
      ],
      "name": "transferFrom",
      "outputs": [],
      "stateMutability": "nonpayable",
      "type": "function"
    }
  ],
  "bytecode": "0x608060405234801561001057600080fd5b506111fe806100206000396000f3fe608060405234801561001057600080fd5b50600436106100f55760003560e01c80636352211e11610097578063b88d4fde11610066578063b88d4fde1461020a578063c87b56dd1461021d578063d5abeb0114610230578063e985e9c51461023857600080fd5b80636352211e146101b357806370a08231146101dc57806395d89b41146101ef578063a22cb465146101f757600080fd5b8063095ea7b3116100d3578063095ea7b31461016257806318160ddd1461017757806323b872dd1461018d57806342842e0e146101a057600080fd5b806301ffc9a7146100fa57806306fdde0314610122578063081812fc14610137575b600080fd5b61010d610108366004610d8f565b61024b565b60405190151581526020015b60405180910390f35b61012a61029d565b6040516101199190610dfc565b61014a610145366004610e0f565b61032f565b6040516001600160a01b039091168152602001610119565b610175610170366004610e44565b6103c9565b005b61017f6104dc565b604051908152602001610119565b61017561019b366004610e6e565b6104f3565b6101756101ae366004610e6e565b610524565b61014a6101c1366004610e0f565b6000908152606a60205260409020546001600160a01b031690565b61017f6101ea366004610eaa565b61053f565b61012a6105c6565b610175610205366004610ec5565b6105d5565b610175610218366004610f17565b6105e4565b61012a61022b366004610e0f565b61061c565b60695461017f565b61010d610246366004610ff3565b610704565b60006001600160e01b031982166380ac58cd60e01b148061027c57506001600160e01b03198216635b5e139f60e01b145b8061029757506301ffc9a760e01b6001600160e01b03198316145b92915050565b6060606580546102ac90611026565b80601f01602080910402602001604051908101604052809291908181526020018280546102d890611026565b80156103255780601f106102fa57610100808354040283529160200191610325565b820191906000526020600020905b81548152906001019060200180831161030857829003601f168201915b5050505050905090565b6000818152606a60205260408120546001600160a01b03166103ad5760405162461bcd60e51b815260206004820152602c60248201527f4552433732313a20617070726f76656420717565727920666f72206e6f6e657860448201526b34b9ba32b73a103a37b5b2b760a11b60648201526084015b60405180910390fd5b506000908152606c60205260409020546001600160a01b031690565b6000818152606a60205260409020546001600160a01b0390811690831681900361043f5760405162461bcd60e51b815260206004820152602160248201527f4552433732313a20617070726f76616c20746f2063757272656e74206f776e656044820152603960f91b60648201526084016103a4565b336001600160a01b038216148061045b575061045b8133610704565b6104cd5760405162461bcd60e51b815260206004820152603860248201527f4552433732313a20617070726f76652063616c6c6572206973206e6f74206f7760448201527f6e6572206e6f7220617070726f76656420666f7220616c6c000000000000000060648201526084016103a4565b6104d78383610732565b505050565b60006068546069546104ee9190611076565b905090565b6104fd3382610799565b6105195760405162461bcd60e51b81526004016103a490611089565b6104d783838361086d565b6104d7838383604051806020016040528060008152506105e4565b60006001600160a01b0382166105aa5760405162461bcd60e51b815260206004820152602a60248201527f4552433732313a2062616c616e636520717565727920666f7220746865207a65604482015269726f206164647265737360b01b60648201526084016103a4565b506001600160a01b03166000908152606b602052604090205490565b6060606680546102ac90611026565b6105e0338383610a09565b5050565b6105ee3383610799565b61060a5760405162461bcd60e51b81526004016103a490611089565b61061684848484610ad7565b50505050565b6000818152606a60205260409020546060906001600160a01b031661069b5760405162461bcd60e51b815260206004820152602f60248201527f4552433732314d657461646174613a2055524920717565727920666f72206e6f60448201526e3732bc34b9ba32b73a103a37b5b2b760891b60648201526084016103a4565b60006106b260408051602081019091526000815290565b905060008151116106d257604051806020016040528060008152506106fd565b806106dc84610b0a565b6040516020016106ed9291906110da565b6040516020818303038152906040525b9392505050565b6001600160a01b039182166000908152606d6020908152604080832093909416825291909152205460ff1690565b6000818152606c6020908152604080832080546001600160a01b0319166001600160a01b03878116918217909255606a909352818420549151859492909116917f8c5be1e5ebec7d5bd14f71427d1e84f3dd0314c0f7b2291e5b200ac8c7c3b92591a45050565b6000818152606a60205260408120546001600160a01b03166108125760405162461bcd60e51b815260206004820152602c60248201527f4552433732313a206f70657261746f7220717565727920666f72206e6f6e657860448201526b34b9ba32b73a103a37b5b2b760a11b60648201526084016103a4565b6000828152606a60205260409020546001600160a01b039081169084168114806108555750836001600160a01b031661084a8461032f565b6001600160a01b0316145b8061086557506108658185610704565b949350505050565b6000818152606a60205260409020546001600160a01b038481169116146108e45760405162461bcd60e51b815260206004820152602560248201527f4552433732313a207472616e736665722066726f6d20696e636f72726563742060448201526437bbb732b960d91b60648201526084016103a4565b6001600160a01b0382166109465760405162461bcd60e51b8152602060048201526024808201527f4552433732313a207472616e7366657220746f20746865207a65726f206164646044820152637265737360e01b60648201526084016103a4565b610951600082610732565b6001600160a01b0383166000908152606b6020526040812080546001929061097a908490611076565b90915550506001600160a01b0382166000908152606b602052604081208054600192906109a8908490611109565b90915550506000818152606a602052604080822080546001600160a01b0319166001600160a01b0386811691821790925591518493918716917fddf252ad1be2c89b69c2b068fc378daa952ba7f163c4a11628f55a4df523b3ef91a4505050565b816001600160a01b0316836001600160a01b031603610a6a5760405162461bcd60e51b815260206004820152601960248201527f4552433732313a20617070726f766520746f2063616c6c65720000000000000060448201526064016103a4565b6001600160a01b038381166000818152606d6020908152604080832094871680845294825291829020805460ff191686151590811790915591519182527f17307eab39ab6107e8899845ad3d59bd9653f200f220920489ca2b5937696c31910160405180910390a3505050565b610ae284848461086d565b610aee84848484610b9d565b6106165760405162461bcd60e51b81526004016103a49061111c565b60606000610b1783610c9e565b600101905060008167ffffffffffffffff811115610b3757610b37610f01565b6040519080825280601f01601f191660200182016040528015610b61576020820181803683370190505b5090508181016020015b600019016f181899199a1a9b1b9c1cb0b131b232b360811b600a86061a8153600a8504945084610b6b57509392505050565b60006001600160a01b0384163b15610c9357604051630a85bd0160e11b81526001600160a01b0385169063150b7a0290610be190339089908890889060040161116e565b6020604051808303816000875af1925050508015610c1c575060408051601f3d908101601f19168201909252610c19918101906111ab565b60015b610c79573d808015610c4a576040519150601f19603f3d011682016040523d82523d6000602084013e610c4f565b606091505b508051600003610c715760405162461bcd60e51b81526004016103a49061111c565b805181602001fd5b6001600160e01b031916630a85bd0160e11b149050610865565b506001949350505050565b60008072184f03e93ff9f4daa797ed6e38ed64bf6a1f0160401b8310610cdd5772184f03e93ff9f4daa797ed6e38ed64bf6a1f0160401b830492506040015b6d04ee2d6d415b85acef81000000008310610d09576d04ee2d6d415b85acef8100000000830492506020015b662386f26fc100008310610d2757662386f26fc10000830492506010015b6305f5e1008310610d3f576305f5e100830492506008015b6127108310610d5357612710830492506004015b60648310610d65576064830492506002015b600a83106102975760010192915050565b6001600160e01b031981168114610d8c57600080fd5b50565b600060208284031215610da157600080fd5b81356106fd81610d76565b60005b83811015610dc7578181015183820152602001610daf565b50506000910152565b60008151808452610de8816020860160208601610dac565b601f01601f19169290920160200192915050565b6020815260006106fd6020830184610dd0565b600060208284031215610e2157600080fd5b5035919050565b80356001600160a01b0381168114610e3f57600080fd5b919050565b60008060408385031215610e5757600080fd5b610e6083610e28565b946020939093013593505050565b600080600060608486031215610e8357600080fd5b610e8c84610e28565b9250610e9a60208501610e28565b9150604084013590509250925092565b600060208284031215610ebc57600080fd5b6106fd82610e28565b60008060408385031215610ed857600080fd5b610ee183610e28565b915060208301358015158114610ef657600080fd5b809150509250929050565b634e487b7160e01b600052604160045260246000fd5b60008060008060808587031215610f2d57600080fd5b610f3685610e28565b9350610f4460208601610e28565b925060408501359150606085013567ffffffffffffffff80821115610f6857600080fd5b818701915087601f830112610f7c57600080fd5b813581811115610f8e57610f8e610f01565b604051601f8201601f19908116603f01168101908382118183101715610fb657610fb6610f01565b816040528281528a6020848701011115610fcf57600080fd5b82602086016020830137600060208483010152809550505050505092959194509250565b6000806040838503121561100657600080fd5b61100f83610e28565b915061101d60208401610e28565b90509250929050565b600181811c9082168061103a57607f821691505b60208210810361105a57634e487b7160e01b600052602260045260246000fd5b50919050565b634e487b7160e01b600052601160045260246000fd5b8181038181111561029757610297611060565b60208082526031908201527f4552433732313a207472616e736665722063616c6c6572206973206e6f74206f6040820152701ddb995c881b9bdc88185c1c1c9bdd9959607a1b606082015260800190565b600083516110ec818460208801610dac565b835190830190611100818360208801610dac565b01949350505050565b8082018082111561029757610297611060565b60208082526032908201527f4552433732313a207472616e7366657220746f206e6f6e20455243373231526560408201527131b2b4bb32b91034b6b83632b6b2b73a32b960711b606082015260800190565b6001600160a01b03858116825284166020820152604081018390526080606082018190526000906111a190830184610dd0565b9695505050505050565b6000602082840312156111bd57600080fd5b81516106fd81610d7656fea264697066735822122049a5ed43249e9e15c9b91ecd94671e88a1bb2fd1a7a2cb722a993be51388071864736f6c63430008110033",
  "linkReferences": {},
  "deployedLinkReferences": {}
}