{
  "address": "0x9db70f7dAA66b511827F6825ACBF5f345d35CCd7",
  "abi": [
    {
      "anonymous": false,
      "inputs": [
        {
          "indexed": true,
          "internalType": "address",
          "name": "account",
          "type": "address"
        },
        {
          "indexed": true,
          "internalType": "address",
          "name": "operator",
          "type": "address"
        },
        {
          "indexed": false,
          "internalType": "bool",
          "name": "approved",
          "type": "bool"
        }
      ],
      "name": "ApprovalForAll",
      "type": "event"
    },
    {
      "anonymous": false,
      "inputs": [
        {
          "indexed": false,
          "internalType": "uint8",
          "name": "version",
          "type": "uint8"
        }
      ],
      "name": "Initialized",
      "type": "event"
    },
    {
      "anonymous": false,
      "inputs": [
        {
          "indexed": true,
          "internalType": "address",
          "name": "operator",
          "type": "address"
        },
        {
          "indexed": true,
          "internalType": "address",
          "name": "from",
          "type": "address"
        },
        {
          "indexed": true,
          "internalType": "address",
          "name": "to",
          "type": "address"
        },
        {
          "indexed": false,
          "internalType": "uint256[]",
          "name": "ids",
          "type": "uint256[]"
        },
        {
          "indexed": false,
          "internalType": "uint256[]",
          "name": "values",
          "type": "uint256[]"
        }
      ],
      "name": "TransferBatch",
      "type": "event"
    },
    {
      "anonymous": false,
      "inputs": [
        {
          "indexed": true,
          "internalType": "address",
          "name": "operator",
          "type": "address"
        },
        {
          "indexed": true,
          "internalType": "address",
          "name": "from",
          "type": "address"
        },
        {
          "indexed": true,
          "internalType": "address",
          "name": "to",
          "type": "address"
        },
        {
          "indexed": false,
          "internalType": "uint256",
          "name": "id",
          "type": "uint256"
        },
        {
          "indexed": false,
          "internalType": "uint256",
          "name": "value",
          "type": "uint256"
        }
      ],
      "name": "TransferSingle",
      "type": "event"
    },
    {
      "anonymous": false,
      "inputs": [
        {
          "indexed": false,
          "internalType": "string",
          "name": "value",
          "type": "string"
        },
        {
          "indexed": true,
          "internalType": "uint256",
          "name": "id",
          "type": "uint256"
        }
      ],
      "name": "URI",
      "type": "event"
    },
    {
      "inputs": [],
      "name": "Hpoint",
      "outputs": [
        {
          "internalType": "uint256",
          "name": "",
          "type": "uint256"
        }
      ],
      "stateMutability": "view",
      "type": "function"
    },
    {
      "inputs": [
        {
          "internalType": "address",
          "name": "account",
          "type": "address"
        },
        {
          "internalType": "uint256",
          "name": "id",
          "type": "uint256"
        }
      ],
      "name": "balanceOf",
      "outputs": [
        {
          "internalType": "uint256",
          "name": "",
          "type": "uint256"
        }
      ],
      "stateMutability": "view",
      "type": "function"
    },
    {
      "inputs": [
        {
          "internalType": "address[]",
          "name": "accounts",
          "type": "address[]"
        },
        {
          "internalType": "uint256[]",
          "name": "ids",
          "type": "uint256[]"
        }
      ],
      "name": "balanceOfBatch",
      "outputs": [
        {
          "internalType": "uint256[]",
          "name": "",
          "type": "uint256[]"
        }
      ],
      "stateMutability": "view",
      "type": "function"
    },
    {
      "inputs": [],
      "name": "baseMetadataURI",
      "outputs": [
        {
          "internalType": "string",
          "name": "",
          "type": "string"
        }
      ],
      "stateMutability": "view",
      "type": "function"
    },
    {
      "inputs": [
        {
          "internalType": "address",
          "name": "from",
          "type": "address"
        },
        {
          "internalType": "uint256",
          "name": "tokenId",
          "type": "uint256"
        },
        {
          "internalType": "uint256",
          "name": "amount",
          "type": "uint256"
        }
      ],
      "name": "burn",
      "outputs": [],
      "stateMutability": "nonpayable",
      "type": "function"
    },
    {
      "inputs": [
        {
          "internalType": "address[]",
          "name": "from",
          "type": "address[]"
        },
        {
          "internalType": "uint256[]",
          "name": "ids",
          "type": "uint256[]"
        },
        {
          "internalType": "uint256[]",
          "name": "amounts",
          "type": "uint256[]"
        }
      ],
      "name": "burnBatch",
      "outputs": [],
      "stateMutability": "nonpayable",
      "type": "function"
    },
    {
      "inputs": [],
      "name": "controller",
      "outputs": [
        {
          "internalType": "address",
          "name": "",
          "type": "address"
        }
      ],
      "stateMutability": "view",
      "type": "function"
    },
    {
      "inputs": [],
      "name": "currentTimeStamp",
      "outputs": [
        {
          "internalType": "uint256",
          "name": "",
          "type": "uint256"
        }
      ],
      "stateMutability": "view",
      "type": "function"
    },
    {
      "inputs": [
        {
          "internalType": "uint256",
          "name": "tokenId",
          "type": "uint256"
        }
      ],
      "name": "exchangeHValue",
      "outputs": [],
      "stateMutability": "nonpayable",
      "type": "function"
    },
    {
      "inputs": [
        {
          "internalType": "uint256",
          "name": "amount",
          "type": "uint256"
        }
      ],
      "name": "exchangeHoliday",
      "outputs": [],
      "stateMutability": "nonpayable",
      "type": "function"
    },
    {
      "inputs": [],
      "name": "exchangeLimit",
      "outputs": [
        {
          "internalType": "uint256",
          "name": "",
          "type": "uint256"
        }
      ],
      "stateMutability": "view",
      "type": "function"
    },
    {
      "inputs": [
        {
          "internalType": "address",
          "name": "",
          "type": "address"
        }
      ],
      "name": "exchangeTimes",
      "outputs": [
        {
          "internalType": "uint256",
          "name": "",
          "type": "uint256"
        }
      ],
      "stateMutability": "view",
      "type": "function"
    },
    {
      "inputs": [
        {
          "internalType": "uint256",
          "name": "id",
          "type": "uint256"
        }
      ],
      "name": "exists",
      "outputs": [
        {
          "internalType": "bool",
          "name": "",
          "type": "bool"
        }
      ],
      "stateMutability": "view",
      "type": "function"
    },
    {
      "inputs": [],
      "name": "hashPunk",
      "outputs": [
        {
          "internalType": "contract IHashPunk",
          "name": "",
          "type": "address"
        }
      ],
      "stateMutability": "view",
      "type": "function"
    },
    {
      "inputs": [
        {
          "internalType": "string",
          "name": "_uri",
          "type": "string"
        }
      ],
      "name": "initialize",
      "outputs": [],
      "stateMutability": "nonpayable",
      "type": "function"
    },
    {
      "inputs": [
        {
          "internalType": "address",
          "name": "account",
          "type": "address"
        },
        {
          "internalType": "address",
          "name": "operator",
          "type": "address"
        }
      ],
      "name": "isApprovedForAll",
      "outputs": [
        {
          "internalType": "bool",
          "name": "",
          "type": "bool"
        }
      ],
      "stateMutability": "view",
      "type": "function"
    },
    {
      "inputs": [],
      "name": "luckyEnd",
      "outputs": [
        {
          "internalType": "uint256",
          "name": "",
          "type": "uint256"
        }
      ],
      "stateMutability": "view",
      "type": "function"
    },
    {
      "inputs": [],
      "name": "luckyStart",
      "outputs": [
        {
          "internalType": "uint256",
          "name": "",
          "type": "uint256"
        }
      ],
      "stateMutability": "view",
      "type": "function"
    },
    {
      "inputs": [
        {
          "internalType": "address",
          "name": "to",
          "type": "address"
        },
        {
          "internalType": "uint256",
          "name": "tokenId",
          "type": "uint256"
        },
        {
          "internalType": "uint256",
          "name": "amount",
          "type": "uint256"
        },
        {
          "internalType": "bytes",
          "name": "data",
          "type": "bytes"
        }
      ],
      "name": "mint",
      "outputs": [],
      "stateMutability": "nonpayable",
      "type": "function"
    },
    {
      "inputs": [
        {
          "internalType": "address[]",
          "name": "to",
          "type": "address[]"
        },
        {
          "internalType": "uint256[]",
          "name": "tokenIds",
          "type": "uint256[]"
        },
        {
          "internalType": "uint256[]",
          "name": "amounts",
          "type": "uint256[]"
        },
        {
          "internalType": "uint256[]",
          "name": "negtiveValues",
          "type": "uint256[]"
        },
        {
          "internalType": "bytes",
          "name": "data",
          "type": "bytes"
        }
      ],
      "name": "mintBatch",
      "outputs": [],
      "stateMutability": "nonpayable",
      "type": "function"
    },
    {
      "inputs": [],
      "name": "name",
      "outputs": [
        {
          "internalType": "string",
          "name": "",
          "type": "string"
        }
      ],
      "stateMutability": "view",
      "type": "function"
    },
    {
      "inputs": [
        {
          "internalType": "address",
          "name": "",
          "type": "address"
        }
      ],
      "name": "negtiveValue",
      "outputs": [
        {
          "internalType": "uint256",
          "name": "",
          "type": "uint256"
        }
      ],
      "stateMutability": "view",
      "type": "function"
    },
    {
      "inputs": [],
      "name": "owner",
      "outputs": [
        {
          "internalType": "address",
          "name": "",
          "type": "address"
        }
      ],
      "stateMutability": "view",
      "type": "function"
    },
    {
      "inputs": [],
      "name": "passId",
      "outputs": [
        {
          "internalType": "uint256",
          "name": "",
          "type": "uint256"
        }
      ],
      "stateMutability": "view",
      "type": "function"
    },
    {
      "inputs": [],
      "name": "resetCurrentTimeStamp",
      "outputs": [],
      "stateMutability": "nonpayable",
      "type": "function"
    },
    {
      "inputs": [],
      "name": "resetExchangeTimes",
      "outputs": [],
      "stateMutability": "nonpayable",
      "type": "function"
    },
    {
      "inputs": [
        {
          "internalType": "address",
          "name": "from",
          "type": "address"
        },
        {
          "internalType": "address",
          "name": "to",
          "type": "address"
        },
        {
          "internalType": "uint256[]",
          "name": "ids",
          "type": "uint256[]"
        },
        {
          "internalType": "uint256[]",
          "name": "amounts",
          "type": "uint256[]"
        },
        {
          "internalType": "bytes",
          "name": "data",
          "type": "bytes"
        }
      ],
      "name": "safeBatchTransferFrom",
      "outputs": [],
      "stateMutability": "nonpayable",
      "type": "function"
    },
    {
      "inputs": [
        {
          "internalType": "address",
          "name": "from",
          "type": "address"
        },
        {
          "internalType": "address",
          "name": "to",
          "type": "address"
        },
        {
          "internalType": "uint256",
          "name": "id",
          "type": "uint256"
        },
        {
          "internalType": "uint256",
          "name": "amount",
          "type": "uint256"
        },
        {
          "internalType": "bytes",
          "name": "data",
          "type": "bytes"
        }
      ],
      "name": "safeTransferFrom",
      "outputs": [],
      "stateMutability": "nonpayable",
      "type": "function"
    },
    {
      "inputs": [
        {
          "internalType": "address",
          "name": "operator",
          "type": "address"
        },
        {
          "internalType": "bool",
          "name": "approved",
          "type": "bool"
        }
      ],
      "name": "setApprovalForAll",
      "outputs": [],
      "stateMutability": "nonpayable",
      "type": "function"
    },
    {
      "inputs": [
        {
          "internalType": "string",
          "name": "baseUri",
          "type": "string"
        }
      ],
      "name": "setBaseUri",
      "outputs": [],
      "stateMutability": "nonpayable",
      "type": "function"
    },
    {
      "inputs": [
        {
          "internalType": "address",
          "name": "_controller",
          "type": "address"
        }
      ],
      "name": "setController",
      "outputs": [],
      "stateMutability": "nonpayable",
      "type": "function"
    },
    {
      "inputs": [
        {
          "internalType": "contract IHashPunk",
          "name": "_hashPunk",
          "type": "address"
        }
      ],
      "name": "setHashPunk",
      "outputs": [],
      "stateMutability": "nonpayable",
      "type": "function"
    },
    {
      "inputs": [
        {
          "internalType": "bytes4",
          "name": "interfaceId",
          "type": "bytes4"
        }
      ],
      "name": "supportsInterface",
      "outputs": [
        {
          "internalType": "bool",
          "name": "",
          "type": "bool"
        }
      ],
      "stateMutability": "view",
      "type": "function"
    },
    {
      "inputs": [],
      "name": "symbol",
      "outputs": [
        {
          "internalType": "string",
          "name": "",
          "type": "string"
        }
      ],
      "stateMutability": "view",
      "type": "function"
    },
    {
      "inputs": [
        {
          "internalType": "uint256",
          "name": "id",
          "type": "uint256"
        }
      ],
      "name": "totalSupply",
      "outputs": [
        {
          "internalType": "uint256",
          "name": "",
          "type": "uint256"
        }
      ],
      "stateMutability": "view",
      "type": "function"
    },
    {
      "inputs": [
        {
          "internalType": "uint256",
          "name": "tokenId",
          "type": "uint256"
        }
      ],
      "name": "uri",
      "outputs": [
        {
          "internalType": "string",
          "name": "",
          "type": "string"
        }
      ],
      "stateMutability": "view",
      "type": "function"
    },
    {
      "inputs": [],
      "name": "voucher",
      "outputs": [
        {
          "internalType": "uint256",
          "name": "",
          "type": "uint256"
        }
      ],
      "stateMutability": "view",
      "type": "function"
    }
  ],
  "transactionHash": "0x8e78b89152bee5da1a92f1fddfba24fd182a51ead0c65bddab7487c30d9399b1",
  "args": [],
  "numDeployments": 2,
  "solcInputHash": "c9aa84b2c29493ebfb2398f2cb631dff",
  "bytecode": "0x6080604052600160d055600260d155600360d255600160d3556101f460d455600360d55534801561002f57600080fd5b50612c1c8061003f6000396000f3fe608060405234801561001057600080fd5b50600436106102265760003560e01c80638da5cb5b11610130578063cdda418c116100b8578063f5298aca1161007c578063f5298aca146104d9578063f62d1888146104ec578063f77c4791146104ff578063f7e056ee14610512578063f96b7bf91461051b57600080fd5b8063cdda418c14610465578063d717b05e1461046e578063e1012a8914610477578063e985e9c51461048a578063f242432a146104c657600080fd5b80639ba138c8116100ff5780639ba138c8146103f9578063a0bcfc7f1461040c578063a22cb4651461041f578063a5afb7e014610432578063bd85b0391461044557600080fd5b80638da5cb5b146103a057806392eefe9b146103cb57806395d89b41146103de5780639642903f146103e657600080fd5b80634c25e11f116101b35780636be55bb4116101825780636be55bb414610349578063731133e91461035157806383d18f7a14610364578063887be0521461036d5780638b0bb0691461038057600080fd5b80634c25e11f146102df5780634e1273f4146102ff5780634f558e791461031f5780635b2bd79e1461034157600080fd5b80630e89341c116101fa5780630e89341c146102925780632a36c108146102a55780632eb2c2d6146102ba578063340a9a1c146102cd578063444b7aaf146102d657600080fd5b8062fdd58e1461022b57806301ffc9a71461025157806306fdde03146102745780630e47152514610289575b600080fd5b61023e610239366004611e2f565b610523565b6040519081526020015b60405180910390f35b61026461025f366004611e71565b6105be565b6040519015158152602001610248565b61027c61060e565b6040516102489190611ee5565b61023e60d35481565b61027c6102a0366004611ef8565b61069c565b6102b86102b3366004612056565b6106d0565b005b6102b86102c836600461215a565b610742565b61023e60ce5481565b61023e60d05481565b61023e6102ed366004612207565b60d76020526000908152604090205481565b61031261030d366004612224565b61078e565b60405161024891906122c2565b61026461032d366004611ef8565b600090815260976020526040902054151590565b61027c6108b7565b6102b86108c4565b6102b861035f3660046122d5565b6108f4565b61023e60d15481565b6102b861037b366004612207565b61092a565b61023e61038e366004612207565b60d66020526000908152604090205481565b60cb546103b3906001600160a01b031681565b6040516001600160a01b039091168152602001610248565b6102b86103d9366004612207565b610976565b61027c6109c2565b6102b86103f4366004611ef8565b6109cf565b60cd546103b3906001600160a01b031681565b6102b861041a366004612337565b610ab7565b6102b861042d366004612387565b610af1565b6102b8610440366004611ef8565b610afc565b61023e610453366004611ef8565b60009081526097602052604090205490565b61023e60d25481565b61023e60d55481565b6102b86104853660046123c5565b610ca3565b610264610498366004612438565b6001600160a01b03918216600090815260666020908152604080832093909416825291909152205460ff1690565b6102b86104d4366004612466565b610d75565b6102b86104e73660046124ce565b610dba565b6102b86104fa366004612337565b610df4565b60cc546103b3906001600160a01b031681565b61023e60d45481565b6102b8610f7a565b60006001600160a01b0383166105935760405162461bcd60e51b815260206004820152602a60248201527f455243313135353a2061646472657373207a65726f206973206e6f742061207660448201526930b634b21037bbb732b960b11b60648201526084015b60405180910390fd5b5060008181526065602090815260408083206001600160a01b03861684529091529020545b92915050565b60006001600160e01b03198216636cdb3d1360e11b14806105ef57506001600160e01b031982166303a24d0760e21b145b806105b857506301ffc9a760e01b6001600160e01b03198316146105b8565b60c9805461061b90612503565b80601f016020809104026020016040519081016040528092919081815260200182805461064790612503565b80156106945780601f1061066957610100808354040283529160200191610694565b820191906000526020600020905b81548152906001019060200180831161067757829003601f168201915b505050505081565b606060cf6106a983610fe3565b6040516020016106ba92919061253d565b6040516020818303038152906040529050919050565b60cb546001600160a01b031633146106fa5760405162461bcd60e51b815260040161058a906125c4565b60005b835181101561073c5761072a84828151811061071b5761071b6125fb565b6020026020010151848461110e565b8061073481612627565b9150506106fd565b50505050565b6001600160a01b03851633148061075e575061075e8533610498565b61077a5760405162461bcd60e51b815260040161058a90612640565b61078785858585856112ad565b5050505050565b606081518351146107f35760405162461bcd60e51b815260206004820152602960248201527f455243313135353a206163636f756e747320616e6420696473206c656e677468604482015268040dad2e6dac2e8c6d60bb1b606482015260840161058a565b600083516001600160401b0381111561080e5761080e611f11565b604051908082528060200260200182016040528015610837578160200160208202803683370190505b50905060005b84518110156108af5761088285828151811061085b5761085b6125fb565b6020026020010151858381518110610875576108756125fb565b6020026020010151610523565b828281518110610894576108946125fb565b60209081029190910101526108a881612627565b905061083d565b509392505050565b60cf805461061b90612503565b60cb546001600160a01b031633146108ee5760405162461bcd60e51b815260040161058a906125c4565b4260ce55565b60cc546001600160a01b0316331461091e5760405162461bcd60e51b815260040161058a9061268e565b61073c84848484611452565b60cb546001600160a01b031633146109545760405162461bcd60e51b815260040161058a906125c4565b60cd80546001600160a01b0319166001600160a01b0392909216919091179055565b60cb546001600160a01b031633146109a05760405162461bcd60e51b815260040161058a906125c4565b60cc80546001600160a01b0319166001600160a01b0392909216919091179055565b60ca805461061b90612503565b60d55433600090815260d660205260409020541115610a285760405162461bcd60e51b8152602060048201526015602482015274195e18d9595908195e18da185b99d9481b1a5b5a5d605a1b604482015260640161058a565b80610a353360d254610523565b1015610a835760405162461bcd60e51b815260206004820152601a60248201527f4856616c75653a206e6f7420656e6f75676820766f7563686572000000000000604482015260640161058a565b610a903360d2548361153d565b33600090815260d6602052604081208054839290610aaf9084906126d2565b909155505050565b60cb546001600160a01b03163314610ae15760405162461bcd60e51b815260040161058a906125c4565b60cf610aed828261272b565b5050565b610aed338383611659565b60cd546040516331a9108f60e11b81526004810183905233916001600160a01b031690636352211e90602401602060405180830381865afa158015610b45573d6000803e3d6000fd5b505050506040513d601f19601f82011682018060405250810190610b6991906127ea565b6001600160a01b031614610bb85760405162461bcd60e51b8152602060048201526016602482015275242b30b63ab29d103737ba10383ab7359037bbb732b960511b604482015260640161058a565b60d3548110158015610bcc575060d4548111155b610c115760405162461bcd60e51b81526020600482015260166024820152754856616c75653a206e6f74206c75636b792070756e6b60501b604482015260640161058a565b610c2f3360d154604660405180602001604052806000815250611452565b610c3d3360d254600161153d565b60cd546040516323b872dd60e01b8152336004820152306024820152604481018390526001600160a01b03909116906323b872dd90606401600060405180830381600087803b158015610c8f57600080fd5b505af1158015610787573d6000803e3d6000fd5b60cb546001600160a01b03163314610ccd5760405162461bcd60e51b815260040161058a906125c4565b60005b8551811015610d6d57610cfe868281518110610cee57610cee6125fb565b6020026020010151868685611739565b828181518110610d1057610d106125fb565b602002602001015160d76000888481518110610d2e57610d2e6125fb565b60200260200101516001600160a01b03166001600160a01b03168152602001908152602001600020819055508080610d6590612627565b915050610cd0565b505050505050565b6001600160a01b038516331480610d915750610d918533610498565b610dad5760405162461bcd60e51b815260040161058a90612640565b6107878585858585611894565b60cc546001600160a01b03163314610de45760405162461bcd60e51b815260040161058a9061268e565b610def83838361153d565b505050565b600054610100900460ff1615808015610e145750600054600160ff909116105b80610e2e5750303b158015610e2e575060005460ff166001145b610e915760405162461bcd60e51b815260206004820152602e60248201527f496e697469616c697a61626c653a20636f6e747261637420697320616c72656160448201526d191e481a5b9a5d1a585b1a5e995960921b606482015260840161058a565b6000805460ff191660011790558015610eb4576000805461ff0019166101001790555b610ebc6119d0565b6040805180820190915260068152654856616c756560d01b602082015260c990610ee6908261272b565b50604080518082019091526002815261242b60f11b602082015260ca90610f0d908261272b565b5060cf610f1a838261272b565b5060cb80546001600160a01b031916331790554260ce558015610aed576000805461ff0019169055604051600181527f7f26b83ff96e1f2b6a682f133852f6798a09c465da95921460cefb38474024989060200160405180910390a15050565b60ce54610f8b906301e133806126d2565b421015610fd15760405162461bcd60e51b8152602060048201526014602482015273242b30b63ab29d103737ba103732bb903cb2b0b960611b604482015260640161058a565b33600090815260d66020526040812055565b60608160000361100a5750506040805180820190915260018152600360fc1b602082015290565b8160005b8115611034578061101e81612627565b915061102d9050600a83612807565b915061100e565b6000816001600160401b0381111561104e5761104e611f11565b6040519080825280601f01601f191660200182016040528015611078576020820181803683370190505b509050815b85156111055761108e600182612829565b9050600061109d600a88612807565b6110a890600a61283c565b6110b29088612829565b6110bd906030612853565b905060008160f81b9050808484815181106110da576110da6125fb565b60200101906001600160f81b031916908160001a9053506110fc600a89612807565b9750505061107d565b50949350505050565b6001600160a01b0383166111345760405162461bcd60e51b815260040161058a9061286c565b80518251146111555760405162461bcd60e51b815260040161058a906128af565b600033905061117881856000868660405180602001604052806000815250611a3d565b60005b8351811015611240576000848281518110611198576111986125fb565b6020026020010151905060008483815181106111b6576111b66125fb565b60209081029190910181015160008481526065835260408082206001600160a01b038c1683529093529190912054909150818110156112075760405162461bcd60e51b815260040161058a906128f7565b60009283526065602090815260408085206001600160a01b038b168652909152909220910390558061123881612627565b91505061117b565b5060006001600160a01b0316846001600160a01b0316826001600160a01b03167f4a39dc06d4c0dbc64b70af90fd698a233a518aa5d07e595d983b8c0526c8f7fb868660405161129192919061293b565b60405180910390a460408051602081019091526000905261073c565b81518351146112ce5760405162461bcd60e51b815260040161058a906128af565b6001600160a01b0384166112f45760405162461bcd60e51b815260040161058a90612969565b33611303818787878787611a3d565b60005b84518110156113ec576000858281518110611323576113236125fb565b602002602001015190506000858381518110611341576113416125fb565b60209081029190910181015160008481526065835260408082206001600160a01b038e1683529093529190912054909150818110156113925760405162461bcd60e51b815260040161058a906129ae565b60008381526065602090815260408083206001600160a01b038e8116855292528083208585039055908b168252812080548492906113d19084906126d2565b92505081905550505050806113e590612627565b9050611306565b50846001600160a01b0316866001600160a01b0316826001600160a01b03167f4a39dc06d4c0dbc64b70af90fd698a233a518aa5d07e595d983b8c0526c8f7fb878760405161143c92919061293b565b60405180910390a4610d6d818787878787611bb6565b6001600160a01b0384166114785760405162461bcd60e51b815260040161058a906129f8565b33600061148485611d11565b9050600061149185611d11565b90506114a283600089858589611a3d565b60008681526065602090815260408083206001600160a01b038b168452909152812080548792906114d49084906126d2565b909155505060408051878152602081018790526001600160a01b03808a1692600092918716917fc3d58168c5ae7397731d063d5bbf3d657854427343f4c083240f7aacaa2d0f62910160405180910390a461153483600089898989611d5c565b50505050505050565b6001600160a01b0383166115635760405162461bcd60e51b815260040161058a9061286c565b33600061156f84611d11565b9050600061157c84611d11565b905061159c83876000858560405180602001604052806000815250611a3d565b60008581526065602090815260408083206001600160a01b038a168452909152902054848110156115df5760405162461bcd60e51b815260040161058a906128f7565b60008681526065602090815260408083206001600160a01b038b81168086529184528285208a8703905582518b81529384018a90529092908816917fc3d58168c5ae7397731d063d5bbf3d657854427343f4c083240f7aacaa2d0f62910160405180910390a4604080516020810190915260009052611534565b816001600160a01b0316836001600160a01b0316036116cc5760405162461bcd60e51b815260206004820152602960248201527f455243313135353a2073657474696e6720617070726f76616c20737461747573604482015268103337b91039b2b63360b91b606482015260840161058a565b6001600160a01b03838116600081815260666020908152604080832094871680845294825291829020805460ff191686151590811790915591519182527f17307eab39ab6107e8899845ad3d59bd9653f200f220920489ca2b5937696c31910160405180910390a3505050565b6001600160a01b03841661175f5760405162461bcd60e51b815260040161058a906129f8565b81518351146117805760405162461bcd60e51b815260040161058a906128af565b3361179081600087878787611a3d565b60005b845181101561182c578381815181106117ae576117ae6125fb565b6020026020010151606560008784815181106117cc576117cc6125fb565b602002602001015181526020019081526020016000206000886001600160a01b03166001600160a01b03168152602001908152602001600020600082825461181491906126d2565b9091555081905061182481612627565b915050611793565b50846001600160a01b031660006001600160a01b0316826001600160a01b03167f4a39dc06d4c0dbc64b70af90fd698a233a518aa5d07e595d983b8c0526c8f7fb878760405161187d92919061293b565b60405180910390a461078781600087878787611bb6565b6001600160a01b0384166118ba5760405162461bcd60e51b815260040161058a90612969565b3360006118c685611d11565b905060006118d385611d11565b90506118e3838989858589611a3d565b60008681526065602090815260408083206001600160a01b038c168452909152902054858110156119265760405162461bcd60e51b815260040161058a906129ae565b60008781526065602090815260408083206001600160a01b038d8116855292528083208985039055908a168252812080548892906119659084906126d2565b909155505060408051888152602081018890526001600160a01b03808b16928c821692918816917fc3d58168c5ae7397731d063d5bbf3d657854427343f4c083240f7aacaa2d0f62910160405180910390a46119c5848a8a8a8a8a611d5c565b505050505050505050565b600054610100900460ff16611a3b5760405162461bcd60e51b815260206004820152602b60248201527f496e697469616c697a61626c653a20636f6e7472616374206973206e6f74206960448201526a6e697469616c697a696e6760a81b606482015260840161058a565b565b6001600160a01b038516611ac45760005b8351811015611ac257828181518110611a6957611a696125fb565b602002602001015160976000868481518110611a8757611a876125fb565b602002602001015181526020019081526020016000206000828254611aac91906126d2565b90915550611abb905081612627565b9050611a4e565b505b6001600160a01b038416610d6d5760005b8351811015611534576000848281518110611af257611af26125fb565b602002602001015190506000848381518110611b1057611b106125fb565b6020026020010151905060006097600084815260200190815260200160002054905081811015611b935760405162461bcd60e51b815260206004820152602860248201527f455243313135353a206275726e20616d6f756e74206578636565647320746f74604482015267616c537570706c7960c01b606482015260840161058a565b60009283526097602052604090922091039055611baf81612627565b9050611ad5565b6001600160a01b0384163b15610d6d5760405163bc197c8160e01b81526001600160a01b0385169063bc197c8190611bfa9089908990889088908890600401612a39565b6020604051808303816000875af1925050508015611c35575060408051601f3d908101601f19168201909252611c3291810190612a97565b60015b611ce157611c41612ab4565b806308c379a003611c7a5750611c55612ad0565b80611c605750611c7c565b8060405162461bcd60e51b815260040161058a9190611ee5565b505b60405162461bcd60e51b815260206004820152603460248201527f455243313135353a207472616e7366657220746f206e6f6e2d455243313135356044820152732932b1b2b4bb32b91034b6b83632b6b2b73a32b960611b606482015260840161058a565b6001600160e01b0319811663bc197c8160e01b146115345760405162461bcd60e51b815260040161058a90612b59565b60408051600180825281830190925260609160009190602080830190803683370190505090508281600081518110611d4b57611d4b6125fb565b602090810291909101015292915050565b6001600160a01b0384163b15610d6d5760405163f23a6e6160e01b81526001600160a01b0385169063f23a6e6190611da09089908990889088908890600401612ba1565b6020604051808303816000875af1925050508015611ddb575060408051601f3d908101601f19168201909252611dd891810190612a97565b60015b611de757611c41612ab4565b6001600160e01b0319811663f23a6e6160e01b146115345760405162461bcd60e51b815260040161058a90612b59565b6001600160a01b0381168114611e2c57600080fd5b50565b60008060408385031215611e4257600080fd5b8235611e4d81611e17565b946020939093013593505050565b6001600160e01b031981168114611e2c57600080fd5b600060208284031215611e8357600080fd5b8135611e8e81611e5b565b9392505050565b60005b83811015611eb0578181015183820152602001611e98565b50506000910152565b60008151808452611ed1816020860160208601611e95565b601f01601f19169290920160200192915050565b602081526000611e8e6020830184611eb9565b600060208284031215611f0a57600080fd5b5035919050565b634e487b7160e01b600052604160045260246000fd5b601f8201601f191681016001600160401b0381118282101715611f4c57611f4c611f11565b6040525050565b60006001600160401b03821115611f6c57611f6c611f11565b5060051b60200190565b600082601f830112611f8757600080fd5b81356020611f9482611f53565b604051611fa18282611f27565b83815260059390931b8501820192828101915086841115611fc157600080fd5b8286015b84811015611fe5578035611fd881611e17565b8352918301918301611fc5565b509695505050505050565b600082601f83011261200157600080fd5b8135602061200e82611f53565b60405161201b8282611f27565b83815260059390931b850182019282810191508684111561203b57600080fd5b8286015b84811015611fe5578035835291830191830161203f565b60008060006060848603121561206b57600080fd5b83356001600160401b038082111561208257600080fd5b61208e87838801611f76565b945060208601359150808211156120a457600080fd5b6120b087838801611ff0565b935060408601359150808211156120c657600080fd5b506120d386828701611ff0565b9150509250925092565b60006001600160401b038311156120f6576120f6611f11565b60405161210d601f8501601f191660200182611f27565b80915083815284848401111561212257600080fd5b83836020830137600060208583010152509392505050565b600082601f83011261214b57600080fd5b611e8e838335602085016120dd565b600080600080600060a0868803121561217257600080fd5b853561217d81611e17565b9450602086013561218d81611e17565b935060408601356001600160401b03808211156121a957600080fd5b6121b589838a01611ff0565b945060608801359150808211156121cb57600080fd5b6121d789838a01611ff0565b935060808801359150808211156121ed57600080fd5b506121fa8882890161213a565b9150509295509295909350565b60006020828403121561221957600080fd5b8135611e8e81611e17565b6000806040838503121561223757600080fd5b82356001600160401b038082111561224e57600080fd5b61225a86838701611f76565b9350602085013591508082111561227057600080fd5b5061227d85828601611ff0565b9150509250929050565b600081518084526020808501945080840160005b838110156122b75781518752958201959082019060010161229b565b509495945050505050565b602081526000611e8e6020830184612287565b600080600080608085870312156122eb57600080fd5b84356122f681611e17565b9350602085013592506040850135915060608501356001600160401b0381111561231f57600080fd5b61232b8782880161213a565b91505092959194509250565b60006020828403121561234957600080fd5b81356001600160401b0381111561235f57600080fd5b8201601f8101841361237057600080fd5b61237f848235602084016120dd565b949350505050565b6000806040838503121561239a57600080fd5b82356123a581611e17565b9150602083013580151581146123ba57600080fd5b809150509250929050565b600080600080600060a086880312156123dd57600080fd5b85356001600160401b03808211156123f457600080fd5b61240089838a01611f76565b9650602088013591508082111561241657600080fd5b61242289838a01611ff0565b955060408801359150808211156121a957600080fd5b6000806040838503121561244b57600080fd5b823561245681611e17565b915060208301356123ba81611e17565b600080600080600060a0868803121561247e57600080fd5b853561248981611e17565b9450602086013561249981611e17565b9350604086013592506060860135915060808601356001600160401b038111156124c257600080fd5b6121fa8882890161213a565b6000806000606084860312156124e357600080fd5b83356124ee81611e17565b95602085013595506040909401359392505050565b600181811c9082168061251757607f821691505b60208210810361253757634e487b7160e01b600052602260045260246000fd5b50919050565b600080845461254b81612503565b600182811680156125635760018114612578576125a7565b60ff19841687528215158302870194506125a7565b8860005260208060002060005b8581101561259e5781548a820152908401908201612585565b50505082870194505b5050505083516125bb818360208801611e95565b01949350505050565b6020808252601f908201527f4856616c75653a2063616c6c6572206973206e6f7420746865206f776e657200604082015260600190565b634e487b7160e01b600052603260045260246000fd5b634e487b7160e01b600052601160045260246000fd5b60006001820161263957612639612611565b5060010190565b6020808252602e908201527f455243313135353a2063616c6c6572206973206e6f7420746f6b656e206f776e60408201526d195c881bdc88185c1c1c9bdd995960921b606082015260800190565b60208082526024908201527f4856616c75653a2063616c6c6572206973206e6f742074686520636f6e74726f604082015263363632b960e11b606082015260800190565b808201808211156105b8576105b8612611565b601f821115610def57600081815260208120601f850160051c8101602086101561270c5750805b601f850160051c820191505b81811015610d6d57828155600101612718565b81516001600160401b0381111561274457612744611f11565b612758816127528454612503565b846126e5565b602080601f83116001811461278d57600084156127755750858301515b600019600386901b1c1916600185901b178555610d6d565b600085815260208120601f198616915b828110156127bc5788860151825594840194600190910190840161279d565b50858210156127da5787850151600019600388901b60f8161c191681555b5050505050600190811b01905550565b6000602082840312156127fc57600080fd5b8151611e8e81611e17565b60008261282457634e487b7160e01b600052601260045260246000fd5b500490565b818103818111156105b8576105b8612611565b80820281158282048414176105b8576105b8612611565b60ff81811683821601908111156105b8576105b8612611565b60208082526023908201527f455243313135353a206275726e2066726f6d20746865207a65726f206164647260408201526265737360e81b606082015260800190565b60208082526028908201527f455243313135353a2069647320616e6420616d6f756e7473206c656e677468206040820152670dad2e6dac2e8c6d60c31b606082015260800190565b60208082526024908201527f455243313135353a206275726e20616d6f756e7420657863656564732062616c604082015263616e636560e01b606082015260800190565b60408152600061294e6040830185612287565b82810360208401526129608185612287565b95945050505050565b60208082526025908201527f455243313135353a207472616e7366657220746f20746865207a65726f206164604082015264647265737360d81b606082015260800190565b6020808252602a908201527f455243313135353a20696e73756666696369656e742062616c616e636520666f60408201526939103a3930b739b332b960b11b606082015260800190565b60208082526021908201527f455243313135353a206d696e7420746f20746865207a65726f206164647265736040820152607360f81b606082015260800190565b6001600160a01b0386811682528516602082015260a060408201819052600090612a6590830186612287565b8281036060840152612a778186612287565b90508281036080840152612a8b8185611eb9565b98975050505050505050565b600060208284031215612aa957600080fd5b8151611e8e81611e5b565b600060033d1115612acd5760046000803e5060005160e01c5b90565b600060443d1015612ade5790565b6040516003193d81016004833e81513d6001600160401b038160248401118184111715612b0d57505050505090565b8285019150815181811115612b255750505050505090565b843d8701016020828501011115612b3f5750505050505090565b612b4e60208286010187611f27565b509095945050505050565b60208082526028908201527f455243313135353a204552433131353552656365697665722072656a656374656040820152676420746f6b656e7360c01b606082015260800190565b6001600160a01b03868116825285166020820152604081018490526060810183905260a060808201819052600090612bdb90830184611eb9565b97965050505050505056fea2646970667358221220103545ac71d30cdac437d8aa632256d67585d0794c379e0b8a1e1ba2a78e867a64736f6c63430008110033",
  "devdoc": {
    "kind": "dev",
    "methods": {
      "balanceOf(address,uint256)": {
        "details": "See {IERC1155-balanceOf}. Requirements: - `account` cannot be the zero address."
      },
      "balanceOfBatch(address[],uint256[])": {
        "details": "See {IERC1155-balanceOfBatch}. Requirements: - `accounts` and `ids` must have the same length."
      },
      "exists(uint256)": {
        "details": "Indicates whether any token exist with a given id, or not."
      },
      "isApprovedForAll(address,address)": {
        "details": "See {IERC1155-isApprovedForAll}."
      },
      "safeBatchTransferFrom(address,address,uint256[],uint256[],bytes)": {
        "details": "See {IERC1155-safeBatchTransferFrom}."
      },
      "safeTransferFrom(address,address,uint256,uint256,bytes)": {
        "details": "See {IERC1155-safeTransferFrom}."
      },
      "setApprovalForAll(address,bool)": {
        "details": "See {IERC1155-setApprovalForAll}."
      },
      "supportsInterface(bytes4)": {
        "details": "See {IERC165-supportsInterface}."
      },
      "totalSupply(uint256)": {
        "details": "Total amount of tokens in with a given id."
      }
    },
    "version": 1
  },
  "userdoc": {
    "kind": "user",
    "methods": {},
    "version": 1
  },
  "storageLayout": {
    "storage": [
      {
        "astId": 6,
        "contract": "contracts/HValue.sol:HValue",
        "label": "_initialized",
        "offset": 0,
        "slot": "0",
        "type": "t_uint8"
      },
      {
        "astId": 9,
        "contract": "contracts/HValue.sol:HValue",
        "label": "_initializing",
        "offset": 1,
        "slot": "0",
        "type": "t_bool"
      },
      {
        "astId": 2093,
        "contract": "contracts/HValue.sol:HValue",
        "label": "__gap",
        "offset": 0,
        "slot": "1",
        "type": "t_array(t_uint256)50_storage"
      },
      {
        "astId": 2137,
        "contract": "contracts/HValue.sol:HValue",
        "label": "__gap",
        "offset": 0,
        "slot": "51",
        "type": "t_array(t_uint256)50_storage"
      },
      {
        "astId": 197,
        "contract": "contracts/HValue.sol:HValue",
        "label": "_balances",
        "offset": 0,
        "slot": "101",
        "type": "t_mapping(t_uint256,t_mapping(t_address,t_uint256))"
      },
      {
        "astId": 203,
        "contract": "contracts/HValue.sol:HValue",
        "label": "_operatorApprovals",
        "offset": 0,
        "slot": "102",
        "type": "t_mapping(t_address,t_mapping(t_address,t_bool))"
      },
      {
        "astId": 205,
        "contract": "contracts/HValue.sol:HValue",
        "label": "_uri",
        "offset": 0,
        "slot": "103",
        "type": "t_string_storage"
      },
      {
        "astId": 1412,
        "contract": "contracts/HValue.sol:HValue",
        "label": "__gap",
        "offset": 0,
        "slot": "104",
        "type": "t_array(t_uint256)47_storage"
      },
      {
        "astId": 1601,
        "contract": "contracts/HValue.sol:HValue",
        "label": "_totalSupply",
        "offset": 0,
        "slot": "151",
        "type": "t_mapping(t_uint256,t_uint256)"
      },
      {
        "astId": 1752,
        "contract": "contracts/HValue.sol:HValue",
        "label": "__gap",
        "offset": 0,
        "slot": "152",
        "type": "t_array(t_uint256)49_storage"
      },
      {
        "astId": 2786,
        "contract": "contracts/HValue.sol:HValue",
        "label": "name",
        "offset": 0,
        "slot": "201",
        "type": "t_string_storage"
      },
      {
        "astId": 2788,
        "contract": "contracts/HValue.sol:HValue",
        "label": "symbol",
        "offset": 0,
        "slot": "202",
        "type": "t_string_storage"
      },
      {
        "astId": 2790,
        "contract": "contracts/HValue.sol:HValue",
        "label": "owner",
        "offset": 0,
        "slot": "203",
        "type": "t_address"
      },
      {
        "astId": 2792,
        "contract": "contracts/HValue.sol:HValue",
        "label": "controller",
        "offset": 0,
        "slot": "204",
        "type": "t_address"
      },
      {
        "astId": 2795,
        "contract": "contracts/HValue.sol:HValue",
        "label": "hashPunk",
        "offset": 0,
        "slot": "205",
        "type": "t_contract(IHashPunk)2784"
      },
      {
        "astId": 2797,
        "contract": "contracts/HValue.sol:HValue",
        "label": "currentTimeStamp",
        "offset": 0,
        "slot": "206",
        "type": "t_uint256"
      },
      {
        "astId": 2799,
        "contract": "contracts/HValue.sol:HValue",
        "label": "baseMetadataURI",
        "offset": 0,
        "slot": "207",
        "type": "t_string_storage"
      },
      {
        "astId": 2802,
        "contract": "contracts/HValue.sol:HValue",
        "label": "passId",
        "offset": 0,
        "slot": "208",
        "type": "t_uint256"
      },
      {
        "astId": 2805,
        "contract": "contracts/HValue.sol:HValue",
        "label": "Hpoint",
        "offset": 0,
        "slot": "209",
        "type": "t_uint256"
      },
      {
        "astId": 2808,
        "contract": "contracts/HValue.sol:HValue",
        "label": "voucher",
        "offset": 0,
        "slot": "210",
        "type": "t_uint256"
      },
      {
        "astId": 2811,
        "contract": "contracts/HValue.sol:HValue",
        "label": "luckyStart",
        "offset": 0,
        "slot": "211",
        "type": "t_uint256"
      },
      {
        "astId": 2814,
        "contract": "contracts/HValue.sol:HValue",
        "label": "luckyEnd",
        "offset": 0,
        "slot": "212",
        "type": "t_uint256"
      },
      {
        "astId": 2817,
        "contract": "contracts/HValue.sol:HValue",
        "label": "exchangeLimit",
        "offset": 0,
        "slot": "213",
        "type": "t_uint256"
      },
      {
        "astId": 2821,
        "contract": "contracts/HValue.sol:HValue",
        "label": "exchangeTimes",
        "offset": 0,
        "slot": "214",
        "type": "t_mapping(t_address,t_uint256)"
      },
      {
        "astId": 2825,
        "contract": "contracts/HValue.sol:HValue",
        "label": "negtiveValue",
        "offset": 0,
        "slot": "215",
        "type": "t_mapping(t_address,t_uint256)"
      }
    ],
    "types": {
      "t_address": {
        "encoding": "inplace",
        "label": "address",
        "numberOfBytes": "20"
      },
      "t_array(t_uint256)47_storage": {
        "base": "t_uint256",
        "encoding": "inplace",
        "label": "uint256[47]",
        "numberOfBytes": "1504"
      },
      "t_array(t_uint256)49_storage": {
        "base": "t_uint256",
        "encoding": "inplace",
        "label": "uint256[49]",
        "numberOfBytes": "1568"
      },
      "t_array(t_uint256)50_storage": {
        "base": "t_uint256",
        "encoding": "inplace",
        "label": "uint256[50]",
        "numberOfBytes": "1600"
      },
      "t_bool": {
        "encoding": "inplace",
        "label": "bool",
        "numberOfBytes": "1"
      },
      "t_contract(IHashPunk)2784": {
        "encoding": "inplace",
        "label": "contract IHashPunk",
        "numberOfBytes": "20"
      },
      "t_mapping(t_address,t_bool)": {
        "encoding": "mapping",
        "key": "t_address",
        "label": "mapping(address => bool)",
        "numberOfBytes": "32",
        "value": "t_bool"
      },
      "t_mapping(t_address,t_mapping(t_address,t_bool))": {
        "encoding": "mapping",
        "key": "t_address",
        "label": "mapping(address => mapping(address => bool))",
        "numberOfBytes": "32",
        "value": "t_mapping(t_address,t_bool)"
      },
      "t_mapping(t_address,t_uint256)": {
        "encoding": "mapping",
        "key": "t_address",
        "label": "mapping(address => uint256)",
        "numberOfBytes": "32",
        "value": "t_uint256"
      },
      "t_mapping(t_uint256,t_mapping(t_address,t_uint256))": {
        "encoding": "mapping",
        "key": "t_uint256",
        "label": "mapping(uint256 => mapping(address => uint256))",
        "numberOfBytes": "32",
        "value": "t_mapping(t_address,t_uint256)"
      },
      "t_mapping(t_uint256,t_uint256)": {
        "encoding": "mapping",
        "key": "t_uint256",
        "label": "mapping(uint256 => uint256)",
        "numberOfBytes": "32",
        "value": "t_uint256"
      },
      "t_string_storage": {
        "encoding": "bytes",
        "label": "string",
        "numberOfBytes": "32"
      },
      "t_uint256": {
        "encoding": "inplace",
        "label": "uint256",
        "numberOfBytes": "32"
      },
      "t_uint8": {
        "encoding": "inplace",
        "label": "uint8",
        "numberOfBytes": "1"
      }
    }
  }
}