{
  "address": "0x37CEA1DF2429ec7AB80d857A8224b046f61C6C78",
  "abi": [
    {
      "anonymous": false,
      "inputs": [
        {
          "indexed": true,
          "internalType": "address",
          "name": "account",
          "type": "address"
        },
        {
          "indexed": true,
          "internalType": "address",
          "name": "operator",
          "type": "address"
        },
        {
          "indexed": false,
          "internalType": "bool",
          "name": "approved",
          "type": "bool"
        }
      ],
      "name": "ApprovalForAll",
      "type": "event"
    },
    {
      "anonymous": false,
      "inputs": [
        {
          "indexed": false,
          "internalType": "uint8",
          "name": "version",
          "type": "uint8"
        }
      ],
      "name": "Initialized",
      "type": "event"
    },
    {
      "anonymous": false,
      "inputs": [
        {
          "indexed": true,
          "internalType": "address",
          "name": "operator",
          "type": "address"
        },
        {
          "indexed": true,
          "internalType": "address",
          "name": "from",
          "type": "address"
        },
        {
          "indexed": true,
          "internalType": "address",
          "name": "to",
          "type": "address"
        },
        {
          "indexed": false,
          "internalType": "uint256[]",
          "name": "ids",
          "type": "uint256[]"
        },
        {
          "indexed": false,
          "internalType": "uint256[]",
          "name": "values",
          "type": "uint256[]"
        }
      ],
      "name": "TransferBatch",
      "type": "event"
    },
    {
      "anonymous": false,
      "inputs": [
        {
          "indexed": true,
          "internalType": "address",
          "name": "operator",
          "type": "address"
        },
        {
          "indexed": true,
          "internalType": "address",
          "name": "from",
          "type": "address"
        },
        {
          "indexed": true,
          "internalType": "address",
          "name": "to",
          "type": "address"
        },
        {
          "indexed": false,
          "internalType": "uint256",
          "name": "id",
          "type": "uint256"
        },
        {
          "indexed": false,
          "internalType": "uint256",
          "name": "value",
          "type": "uint256"
        }
      ],
      "name": "TransferSingle",
      "type": "event"
    },
    {
      "anonymous": false,
      "inputs": [
        {
          "indexed": false,
          "internalType": "string",
          "name": "value",
          "type": "string"
        },
        {
          "indexed": true,
          "internalType": "uint256",
          "name": "id",
          "type": "uint256"
        }
      ],
      "name": "URI",
      "type": "event"
    },
    {
      "inputs": [],
      "name": "Hpoint",
      "outputs": [
        {
          "internalType": "uint256",
          "name": "",
          "type": "uint256"
        }
      ],
      "stateMutability": "view",
      "type": "function"
    },
    {
      "inputs": [
        {
          "internalType": "address",
          "name": "account",
          "type": "address"
        },
        {
          "internalType": "uint256",
          "name": "id",
          "type": "uint256"
        }
      ],
      "name": "balanceOf",
      "outputs": [
        {
          "internalType": "uint256",
          "name": "",
          "type": "uint256"
        }
      ],
      "stateMutability": "view",
      "type": "function"
    },
    {
      "inputs": [
        {
          "internalType": "address[]",
          "name": "accounts",
          "type": "address[]"
        },
        {
          "internalType": "uint256[]",
          "name": "ids",
          "type": "uint256[]"
        }
      ],
      "name": "balanceOfBatch",
      "outputs": [
        {
          "internalType": "uint256[]",
          "name": "",
          "type": "uint256[]"
        }
      ],
      "stateMutability": "view",
      "type": "function"
    },
    {
      "inputs": [],
      "name": "baseMetadataURI",
      "outputs": [
        {
          "internalType": "string",
          "name": "",
          "type": "string"
        }
      ],
      "stateMutability": "view",
      "type": "function"
    },
    {
      "inputs": [
        {
          "internalType": "address",
          "name": "from",
          "type": "address"
        },
        {
          "internalType": "uint256",
          "name": "tokenId",
          "type": "uint256"
        },
        {
          "internalType": "uint256",
          "name": "amount",
          "type": "uint256"
        }
      ],
      "name": "burn",
      "outputs": [],
      "stateMutability": "nonpayable",
      "type": "function"
    },
    {
      "inputs": [
        {
          "internalType": "address[]",
          "name": "from",
          "type": "address[]"
        },
        {
          "internalType": "uint256[]",
          "name": "ids",
          "type": "uint256[]"
        },
        {
          "internalType": "uint256[]",
          "name": "amounts",
          "type": "uint256[]"
        }
      ],
      "name": "burnBatch",
      "outputs": [],
      "stateMutability": "nonpayable",
      "type": "function"
    },
    {
      "inputs": [],
      "name": "controller",
      "outputs": [
        {
          "internalType": "address",
          "name": "",
          "type": "address"
        }
      ],
      "stateMutability": "view",
      "type": "function"
    },
    {
      "inputs": [],
      "name": "currentTimeStamp",
      "outputs": [
        {
          "internalType": "uint256",
          "name": "",
          "type": "uint256"
        }
      ],
      "stateMutability": "view",
      "type": "function"
    },
    {
      "inputs": [
        {
          "internalType": "uint256",
          "name": "tokenId",
          "type": "uint256"
        }
      ],
      "name": "exchangeHValue",
      "outputs": [],
      "stateMutability": "nonpayable",
      "type": "function"
    },
    {
      "inputs": [
        {
          "internalType": "uint256",
          "name": "amount",
          "type": "uint256"
        }
      ],
      "name": "exchangeHoliday",
      "outputs": [],
      "stateMutability": "nonpayable",
      "type": "function"
    },
    {
      "inputs": [],
      "name": "exchangeLimit",
      "outputs": [
        {
          "internalType": "uint256",
          "name": "",
          "type": "uint256"
        }
      ],
      "stateMutability": "view",
      "type": "function"
    },
    {
      "inputs": [
        {
          "internalType": "address",
          "name": "",
          "type": "address"
        }
      ],
      "name": "exchangeTimes",
      "outputs": [
        {
          "internalType": "uint256",
          "name": "",
          "type": "uint256"
        }
      ],
      "stateMutability": "view",
      "type": "function"
    },
    {
      "inputs": [
        {
          "internalType": "uint256",
          "name": "id",
          "type": "uint256"
        }
      ],
      "name": "exists",
      "outputs": [
        {
          "internalType": "bool",
          "name": "",
          "type": "bool"
        }
      ],
      "stateMutability": "view",
      "type": "function"
    },
    {
      "inputs": [],
      "name": "hashPunk",
      "outputs": [
        {
          "internalType": "contract IHashPunk",
          "name": "",
          "type": "address"
        }
      ],
      "stateMutability": "view",
      "type": "function"
    },
    {
      "inputs": [
        {
          "internalType": "string",
          "name": "_uri",
          "type": "string"
        }
      ],
      "name": "initialize",
      "outputs": [],
      "stateMutability": "nonpayable",
      "type": "function"
    },
    {
      "inputs": [
        {
          "internalType": "address",
          "name": "account",
          "type": "address"
        },
        {
          "internalType": "address",
          "name": "operator",
          "type": "address"
        }
      ],
      "name": "isApprovedForAll",
      "outputs": [
        {
          "internalType": "bool",
          "name": "",
          "type": "bool"
        }
      ],
      "stateMutability": "view",
      "type": "function"
    },
    {
      "inputs": [
        {
          "internalType": "uint256",
          "name": "tokenId",
          "type": "uint256"
        }
      ],
      "name": "isRare",
      "outputs": [
        {
          "internalType": "bool",
          "name": "",
          "type": "bool"
        }
      ],
      "stateMutability": "view",
      "type": "function"
    },
    {
      "inputs": [],
      "name": "luckyEnd",
      "outputs": [
        {
          "internalType": "uint256",
          "name": "",
          "type": "uint256"
        }
      ],
      "stateMutability": "view",
      "type": "function"
    },
    {
      "inputs": [],
      "name": "luckyStart",
      "outputs": [
        {
          "internalType": "uint256",
          "name": "",
          "type": "uint256"
        }
      ],
      "stateMutability": "view",
      "type": "function"
    },
    {
      "inputs": [
        {
          "internalType": "address",
          "name": "to",
          "type": "address"
        },
        {
          "internalType": "uint256",
          "name": "tokenId",
          "type": "uint256"
        },
        {
          "internalType": "uint256",
          "name": "amount",
          "type": "uint256"
        },
        {
          "internalType": "bytes",
          "name": "data",
          "type": "bytes"
        }
      ],
      "name": "mint",
      "outputs": [],
      "stateMutability": "nonpayable",
      "type": "function"
    },
    {
      "inputs": [
        {
          "internalType": "address[]",
          "name": "to",
          "type": "address[]"
        },
        {
          "internalType": "uint256[]",
          "name": "tokenIds",
          "type": "uint256[]"
        },
        {
          "internalType": "uint256[]",
          "name": "amounts",
          "type": "uint256[]"
        },
        {
          "internalType": "uint256[]",
          "name": "negtiveValues",
          "type": "uint256[]"
        },
        {
          "internalType": "bytes",
          "name": "data",
          "type": "bytes"
        }
      ],
      "name": "mintBatch",
      "outputs": [],
      "stateMutability": "nonpayable",
      "type": "function"
    },
    {
      "inputs": [],
      "name": "name",
      "outputs": [
        {
          "internalType": "string",
          "name": "",
          "type": "string"
        }
      ],
      "stateMutability": "view",
      "type": "function"
    },
    {
      "inputs": [
        {
          "internalType": "address",
          "name": "",
          "type": "address"
        }
      ],
      "name": "negtiveValue",
      "outputs": [
        {
          "internalType": "uint256",
          "name": "",
          "type": "uint256"
        }
      ],
      "stateMutability": "view",
      "type": "function"
    },
    {
      "inputs": [],
      "name": "owner",
      "outputs": [
        {
          "internalType": "address",
          "name": "",
          "type": "address"
        }
      ],
      "stateMutability": "view",
      "type": "function"
    },
    {
      "inputs": [],
      "name": "passId",
      "outputs": [
        {
          "internalType": "uint256",
          "name": "",
          "type": "uint256"
        }
      ],
      "stateMutability": "view",
      "type": "function"
    },
    {
      "inputs": [],
      "name": "rareAddress",
      "outputs": [
        {
          "internalType": "address[]",
          "name": "",
          "type": "address[]"
        }
      ],
      "stateMutability": "view",
      "type": "function"
    },
    {
      "inputs": [],
      "name": "resetCurrentTimeStamp",
      "outputs": [],
      "stateMutability": "nonpayable",
      "type": "function"
    },
    {
      "inputs": [],
      "name": "resetExchangeTimes",
      "outputs": [],
      "stateMutability": "nonpayable",
      "type": "function"
    },
    {
      "inputs": [
        {
          "internalType": "address",
          "name": "from",
          "type": "address"
        },
        {
          "internalType": "address",
          "name": "to",
          "type": "address"
        },
        {
          "internalType": "uint256[]",
          "name": "ids",
          "type": "uint256[]"
        },
        {
          "internalType": "uint256[]",
          "name": "amounts",
          "type": "uint256[]"
        },
        {
          "internalType": "bytes",
          "name": "data",
          "type": "bytes"
        }
      ],
      "name": "safeBatchTransferFrom",
      "outputs": [],
      "stateMutability": "nonpayable",
      "type": "function"
    },
    {
      "inputs": [
        {
          "internalType": "address",
          "name": "from",
          "type": "address"
        },
        {
          "internalType": "address",
          "name": "to",
          "type": "address"
        },
        {
          "internalType": "uint256",
          "name": "id",
          "type": "uint256"
        },
        {
          "internalType": "uint256",
          "name": "amount",
          "type": "uint256"
        },
        {
          "internalType": "bytes",
          "name": "data",
          "type": "bytes"
        }
      ],
      "name": "safeTransferFrom",
      "outputs": [],
      "stateMutability": "nonpayable",
      "type": "function"
    },
    {
      "inputs": [
        {
          "internalType": "address",
          "name": "operator",
          "type": "address"
        },
        {
          "internalType": "bool",
          "name": "approved",
          "type": "bool"
        }
      ],
      "name": "setApprovalForAll",
      "outputs": [],
      "stateMutability": "nonpayable",
      "type": "function"
    },
    {
      "inputs": [
        {
          "internalType": "string",
          "name": "baseUri",
          "type": "string"
        }
      ],
      "name": "setBaseUri",
      "outputs": [],
      "stateMutability": "nonpayable",
      "type": "function"
    },
    {
      "inputs": [
        {
          "internalType": "address",
          "name": "_controller",
          "type": "address"
        }
      ],
      "name": "setController",
      "outputs": [],
      "stateMutability": "nonpayable",
      "type": "function"
    },
    {
      "inputs": [
        {
          "internalType": "contract IHashPunk",
          "name": "_hashPunk",
          "type": "address"
        }
      ],
      "name": "setHashPunk",
      "outputs": [],
      "stateMutability": "nonpayable",
      "type": "function"
    },
    {
      "inputs": [
        {
          "internalType": "bytes4",
          "name": "interfaceId",
          "type": "bytes4"
        }
      ],
      "name": "supportsInterface",
      "outputs": [
        {
          "internalType": "bool",
          "name": "",
          "type": "bool"
        }
      ],
      "stateMutability": "view",
      "type": "function"
    },
    {
      "inputs": [],
      "name": "symbol",
      "outputs": [
        {
          "internalType": "string",
          "name": "",
          "type": "string"
        }
      ],
      "stateMutability": "view",
      "type": "function"
    },
    {
      "inputs": [
        {
          "internalType": "uint256",
          "name": "id",
          "type": "uint256"
        }
      ],
      "name": "totalSupply",
      "outputs": [
        {
          "internalType": "uint256",
          "name": "",
          "type": "uint256"
        }
      ],
      "stateMutability": "view",
      "type": "function"
    },
    {
      "inputs": [
        {
          "internalType": "uint256",
          "name": "tokenId",
          "type": "uint256"
        }
      ],
      "name": "uri",
      "outputs": [
        {
          "internalType": "string",
          "name": "",
          "type": "string"
        }
      ],
      "stateMutability": "view",
      "type": "function"
    },
    {
      "inputs": [],
      "name": "voucher",
      "outputs": [
        {
          "internalType": "uint256",
          "name": "",
          "type": "uint256"
        }
      ],
      "stateMutability": "view",
      "type": "function"
    }
  ],
  "transactionHash": "0x7117cb2484241ec5099a6da9629034b7bfb1420aa8679c8053730866fea804cf",
  "args": [],
  "numDeployments": 1,
  "solcInputHash": "51a7afa3006e6feeded136f21ec8f0ab",
  "bytecode": "0x6080604052600160d055600260d155600360d255600160d355601e60d455600360d55534801561002e57600080fd5b50612dde8061003e6000396000f3fe608060405234801561001057600080fd5b506004361061023c5760003560e01c80638da5cb5b1161013b578063d717b05e116100b8578063f5298aca1161007c578063f5298aca14610517578063f62d18881461052a578063f77c47911461053d578063f7e056ee14610550578063f96b7bf91461055957600080fd5b8063d717b05e14610497578063e1012a89146104a0578063e985e9c5146104b3578063f11b1fdd146104ef578063f242432a1461050457600080fd5b8063a0bcfc7f116100ff578063a0bcfc7f14610435578063a22cb46514610448578063a5afb7e01461045b578063bd85b0391461046e578063cdda418c1461048e57600080fd5b80638da5cb5b146103c957806392eefe9b146103f457806395d89b41146104075780639642903f1461040f5780639ba138c81461042257600080fd5b8063444b7aaf116101c95780636be55bb41161018d5780636be55bb414610372578063731133e91461037a57806383d18f7a1461038d578063887be052146103965780638b0bb069146103a957600080fd5b8063444b7aaf146102ff5780634c25e11f146103085780634e1273f4146103285780634f558e79146103485780635b2bd79e1461036a57600080fd5b80630e89341c116102105780630e89341c146102a85780631fe09da3146102bb5780632a36c108146102ce5780632eb2c2d6146102e3578063340a9a1c146102f657600080fd5b8062fdd58e1461024157806301ffc9a71461026757806306fdde031461028a5780630e4715251461029f575b600080fd5b61025461024f366004611faa565b610561565b6040519081526020015b60405180910390f35b61027a610275366004611fec565b6105fc565b604051901515815260200161025e565b61029261064c565b60405161025e9190612060565b61025460d35481565b6102926102b6366004612073565b6106da565b61027a6102c9366004612073565b61070e565b6102e16102dc3660046121d1565b610726565b005b6102e16102f13660046122d5565b610798565b61025460ce5481565b61025460d05481565b610254610316366004612382565b60d76020526000908152604090205481565b61033b61033636600461239f565b6107e4565b60405161025e919061243d565b61027a610356366004612073565b600090815260976020526040902054151590565b61029261090d565b6102e161091a565b6102e1610388366004612450565b61094a565b61025460d15481565b6102e16103a4366004612382565b610980565b6102546103b7366004612382565b60d66020526000908152604090205481565b60cb546103dc906001600160a01b031681565b6040516001600160a01b03909116815260200161025e565b6102e1610402366004612382565b6109cc565b610292610a18565b6102e161041d366004612073565b610a25565b60cd546103dc906001600160a01b031681565b6102e16104433660046124b2565b610b0d565b6102e1610456366004612502565b610b47565b6102e1610469366004612073565b610b52565b61025461047c366004612073565b60009081526097602052604090205490565b61025460d25481565b61025460d55481565b6102e16104ae366004612540565b610cf9565b61027a6104c13660046125b3565b6001600160a01b03918216600090815260666020908152604080832093909416825291909152205460ff1690565b6104f7610dcb565b60405161025e91906125e1565b6102e161051236600461262e565b610ef4565b6102e1610525366004612696565b610f39565b6102e16105383660046124b2565b610f73565b60cc546103dc906001600160a01b031681565b61025460d45481565b6102e16110f5565b60006001600160a01b0383166105d15760405162461bcd60e51b815260206004820152602a60248201527f455243313135353a2061646472657373207a65726f206973206e6f742061207660448201526930b634b21037bbb732b960b11b60648201526084015b60405180910390fd5b5060008181526065602090815260408083206001600160a01b03861684529091529020545b92915050565b60006001600160e01b03198216636cdb3d1360e11b148061062d57506001600160e01b031982166303a24d0760e21b145b806105f657506301ffc9a760e01b6001600160e01b03198316146105f6565b60c98054610659906126cb565b80601f0160208091040260200160405190810160405280929190818152602001828054610685906126cb565b80156106d25780601f106106a7576101008083540402835291602001916106d2565b820191906000526020600020905b8154815290600101906020018083116106b557829003601f168201915b505050505081565b606060cf6106e78361115e565b6040516020016106f89291906126ff565b6040516020818303038152906040529050919050565b600060d35482101580156105f657505060d454101590565b60cb546001600160a01b031633146107505760405162461bcd60e51b81526004016105c890612786565b60005b835181101561079257610780848281518110610771576107716127bd565b60200260200101518484611289565b8061078a816127e9565b915050610753565b50505050565b6001600160a01b0385163314806107b457506107b485336104c1565b6107d05760405162461bcd60e51b81526004016105c890612802565b6107dd8585858585611428565b5050505050565b606081518351146108495760405162461bcd60e51b815260206004820152602960248201527f455243313135353a206163636f756e747320616e6420696473206c656e677468604482015268040dad2e6dac2e8c6d60bb1b60648201526084016105c8565b600083516001600160401b038111156108645761086461208c565b60405190808252806020026020018201604052801561088d578160200160208202803683370190505b50905060005b8451811015610905576108d88582815181106108b1576108b16127bd565b60200260200101518583815181106108cb576108cb6127bd565b6020026020010151610561565b8282815181106108ea576108ea6127bd565b60209081029190910101526108fe816127e9565b9050610893565b509392505050565b60cf8054610659906126cb565b60cb546001600160a01b031633146109445760405162461bcd60e51b81526004016105c890612786565b4260ce55565b60cc546001600160a01b031633146109745760405162461bcd60e51b81526004016105c890612850565b610792848484846115cd565b60cb546001600160a01b031633146109aa5760405162461bcd60e51b81526004016105c890612786565b60cd80546001600160a01b0319166001600160a01b0392909216919091179055565b60cb546001600160a01b031633146109f65760405162461bcd60e51b81526004016105c890612786565b60cc80546001600160a01b0319166001600160a01b0392909216919091179055565b60ca8054610659906126cb565b60d55433600090815260d660205260409020541115610a7e5760405162461bcd60e51b8152602060048201526015602482015274195e18d9595908195e18da185b99d9481b1a5b5a5d605a1b60448201526064016105c8565b80610a8b3360d254610561565b1015610ad95760405162461bcd60e51b815260206004820152601a60248201527f4856616c75653a206e6f7420656e6f75676820766f756368657200000000000060448201526064016105c8565b610ae63360d254836116b8565b33600090815260d6602052604081208054839290610b05908490612894565b909155505050565b60cb546001600160a01b03163314610b375760405162461bcd60e51b81526004016105c890612786565b60cf610b4382826128ed565b5050565b610b433383836117d4565b60cd546040516331a9108f60e11b81526004810183905233916001600160a01b031690636352211e90602401602060405180830381865afa158015610b9b573d6000803e3d6000fd5b505050506040513d601f19601f82011682018060405250810190610bbf91906129ac565b6001600160a01b031614610c0e5760405162461bcd60e51b8152602060048201526016602482015275242b30b63ab29d103737ba10383ab7359037bbb732b960511b60448201526064016105c8565b60d3548110158015610c22575060d4548111155b610c675760405162461bcd60e51b81526020600482015260166024820152754856616c75653a206e6f74206c75636b792070756e6b60501b60448201526064016105c8565b610c853360d1546046604051806020016040528060008152506115cd565b610c933360d25460016116b8565b60cd546040516323b872dd60e01b8152336004820152306024820152604481018390526001600160a01b03909116906323b872dd90606401600060405180830381600087803b158015610ce557600080fd5b505af11580156107dd573d6000803e3d6000fd5b60cb546001600160a01b03163314610d235760405162461bcd60e51b81526004016105c890612786565b60005b8551811015610dc357610d54868281518110610d4457610d446127bd565b60200260200101518686856118b4565b828181518110610d6657610d666127bd565b602002602001015160d76000888481518110610d8457610d846127bd565b60200260200101516001600160a01b03166001600160a01b03168152602001908152602001600020819055508080610dbb906127e9565b915050610d26565b505050505050565b6060600060d35460d454610ddf91906129c9565b610dea906001612894565b6001600160401b03811115610e0157610e0161208c565b604051908082528060200260200182016040528015610e2a578160200160208202803683370190505b5060d3549091505b60d4548111610eee5760cd546040516331a9108f60e11b8152600481018390526001600160a01b0390911690636352211e90602401602060405180830381865afa158015610e84573d6000803e3d6000fd5b505050506040513d601f19601f82011682018060405250810190610ea891906129ac565b82610eb46001846129c9565b81518110610ec457610ec46127bd565b6001600160a01b039092166020928302919091019091015280610ee6816127e9565b915050610e32565b50919050565b6001600160a01b038516331480610f105750610f1085336104c1565b610f2c5760405162461bcd60e51b81526004016105c890612802565b6107dd8585858585611a0f565b60cc546001600160a01b03163314610f635760405162461bcd60e51b81526004016105c890612850565b610f6e8383836116b8565b505050565b600054610100900460ff1615808015610f935750600054600160ff909116105b80610fad5750303b158015610fad575060005460ff166001145b6110105760405162461bcd60e51b815260206004820152602e60248201527f496e697469616c697a61626c653a20636f6e747261637420697320616c72656160448201526d191e481a5b9a5d1a585b1a5e995960921b60648201526084016105c8565b6000805460ff191660011790558015611033576000805461ff0019166101001790555b61103b611b4b565b6040805180820190915260068152654856616c756560d01b602082015260c99061106590826128ed565b50604080518082019091526002815261242b60f11b602082015260ca9061108c90826128ed565b5061109682610b0d565b60cb80546001600160a01b031916331790554260ce558015610b43576000805461ff0019169055604051600181527f7f26b83ff96e1f2b6a682f133852f6798a09c465da95921460cefb38474024989060200160405180910390a15050565b60ce54611106906301e13380612894565b42101561114c5760405162461bcd60e51b8152602060048201526014602482015273242b30b63ab29d103737ba103732bb903cb2b0b960611b60448201526064016105c8565b33600090815260d66020526040812055565b6060816000036111855750506040805180820190915260018152600360fc1b602082015290565b8160005b81156111af5780611199816127e9565b91506111a89050600a836129dc565b9150611189565b6000816001600160401b038111156111c9576111c961208c565b6040519080825280601f01601f1916602001820160405280156111f3576020820181803683370190505b509050815b8515611280576112096001826129c9565b90506000611218600a886129dc565b61122390600a6129fe565b61122d90886129c9565b611238906030612a15565b905060008160f81b905080848481518110611255576112556127bd565b60200101906001600160f81b031916908160001a905350611277600a896129dc565b975050506111f8565b50949350505050565b6001600160a01b0383166112af5760405162461bcd60e51b81526004016105c890612a2e565b80518251146112d05760405162461bcd60e51b81526004016105c890612a71565b60003390506112f381856000868660405180602001604052806000815250611bb8565b60005b83518110156113bb576000848281518110611313576113136127bd565b602002602001015190506000848381518110611331576113316127bd565b60209081029190910181015160008481526065835260408082206001600160a01b038c1683529093529190912054909150818110156113825760405162461bcd60e51b81526004016105c890612ab9565b60009283526065602090815260408085206001600160a01b038b16865290915290922091039055806113b3816127e9565b9150506112f6565b5060006001600160a01b0316846001600160a01b0316826001600160a01b03167f4a39dc06d4c0dbc64b70af90fd698a233a518aa5d07e595d983b8c0526c8f7fb868660405161140c929190612afd565b60405180910390a4604080516020810190915260009052610792565b81518351146114495760405162461bcd60e51b81526004016105c890612a71565b6001600160a01b03841661146f5760405162461bcd60e51b81526004016105c890612b2b565b3361147e818787878787611bb8565b60005b845181101561156757600085828151811061149e5761149e6127bd565b6020026020010151905060008583815181106114bc576114bc6127bd565b60209081029190910181015160008481526065835260408082206001600160a01b038e16835290935291909120549091508181101561150d5760405162461bcd60e51b81526004016105c890612b70565b60008381526065602090815260408083206001600160a01b038e8116855292528083208585039055908b1682528120805484929061154c908490612894565b9250508190555050505080611560906127e9565b9050611481565b50846001600160a01b0316866001600160a01b0316826001600160a01b03167f4a39dc06d4c0dbc64b70af90fd698a233a518aa5d07e595d983b8c0526c8f7fb87876040516115b7929190612afd565b60405180910390a4610dc3818787878787611d31565b6001600160a01b0384166115f35760405162461bcd60e51b81526004016105c890612bba565b3360006115ff85611e8c565b9050600061160c85611e8c565b905061161d83600089858589611bb8565b60008681526065602090815260408083206001600160a01b038b1684529091528120805487929061164f908490612894565b909155505060408051878152602081018790526001600160a01b03808a1692600092918716917fc3d58168c5ae7397731d063d5bbf3d657854427343f4c083240f7aacaa2d0f62910160405180910390a46116af83600089898989611ed7565b50505050505050565b6001600160a01b0383166116de5760405162461bcd60e51b81526004016105c890612a2e565b3360006116ea84611e8c565b905060006116f784611e8c565b905061171783876000858560405180602001604052806000815250611bb8565b60008581526065602090815260408083206001600160a01b038a1684529091529020548481101561175a5760405162461bcd60e51b81526004016105c890612ab9565b60008681526065602090815260408083206001600160a01b038b81168086529184528285208a8703905582518b81529384018a90529092908816917fc3d58168c5ae7397731d063d5bbf3d657854427343f4c083240f7aacaa2d0f62910160405180910390a46040805160208101909152600090526116af565b816001600160a01b0316836001600160a01b0316036118475760405162461bcd60e51b815260206004820152602960248201527f455243313135353a2073657474696e6720617070726f76616c20737461747573604482015268103337b91039b2b63360b91b60648201526084016105c8565b6001600160a01b03838116600081815260666020908152604080832094871680845294825291829020805460ff191686151590811790915591519182527f17307eab39ab6107e8899845ad3d59bd9653f200f220920489ca2b5937696c31910160405180910390a3505050565b6001600160a01b0384166118da5760405162461bcd60e51b81526004016105c890612bba565b81518351146118fb5760405162461bcd60e51b81526004016105c890612a71565b3361190b81600087878787611bb8565b60005b84518110156119a757838181518110611929576119296127bd565b602002602001015160656000878481518110611947576119476127bd565b602002602001015181526020019081526020016000206000886001600160a01b03166001600160a01b03168152602001908152602001600020600082825461198f9190612894565b9091555081905061199f816127e9565b91505061190e565b50846001600160a01b031660006001600160a01b0316826001600160a01b03167f4a39dc06d4c0dbc64b70af90fd698a233a518aa5d07e595d983b8c0526c8f7fb87876040516119f8929190612afd565b60405180910390a46107dd81600087878787611d31565b6001600160a01b038416611a355760405162461bcd60e51b81526004016105c890612b2b565b336000611a4185611e8c565b90506000611a4e85611e8c565b9050611a5e838989858589611bb8565b60008681526065602090815260408083206001600160a01b038c16845290915290205485811015611aa15760405162461bcd60e51b81526004016105c890612b70565b60008781526065602090815260408083206001600160a01b038d8116855292528083208985039055908a16825281208054889290611ae0908490612894565b909155505060408051888152602081018890526001600160a01b03808b16928c821692918816917fc3d58168c5ae7397731d063d5bbf3d657854427343f4c083240f7aacaa2d0f62910160405180910390a4611b40848a8a8a8a8a611ed7565b505050505050505050565b600054610100900460ff16611bb65760405162461bcd60e51b815260206004820152602b60248201527f496e697469616c697a61626c653a20636f6e7472616374206973206e6f74206960448201526a6e697469616c697a696e6760a81b60648201526084016105c8565b565b6001600160a01b038516611c3f5760005b8351811015611c3d57828181518110611be457611be46127bd565b602002602001015160976000868481518110611c0257611c026127bd565b602002602001015181526020019081526020016000206000828254611c279190612894565b90915550611c369050816127e9565b9050611bc9565b505b6001600160a01b038416610dc35760005b83518110156116af576000848281518110611c6d57611c6d6127bd565b602002602001015190506000848381518110611c8b57611c8b6127bd565b6020026020010151905060006097600084815260200190815260200160002054905081811015611d0e5760405162461bcd60e51b815260206004820152602860248201527f455243313135353a206275726e20616d6f756e74206578636565647320746f74604482015267616c537570706c7960c01b60648201526084016105c8565b60009283526097602052604090922091039055611d2a816127e9565b9050611c50565b6001600160a01b0384163b15610dc35760405163bc197c8160e01b81526001600160a01b0385169063bc197c8190611d759089908990889088908890600401612bfb565b6020604051808303816000875af1925050508015611db0575060408051601f3d908101601f19168201909252611dad91810190612c59565b60015b611e5c57611dbc612c76565b806308c379a003611df55750611dd0612c92565b80611ddb5750611df7565b8060405162461bcd60e51b81526004016105c89190612060565b505b60405162461bcd60e51b815260206004820152603460248201527f455243313135353a207472616e7366657220746f206e6f6e2d455243313135356044820152732932b1b2b4bb32b91034b6b83632b6b2b73a32b960611b60648201526084016105c8565b6001600160e01b0319811663bc197c8160e01b146116af5760405162461bcd60e51b81526004016105c890612d1b565b60408051600180825281830190925260609160009190602080830190803683370190505090508281600081518110611ec657611ec66127bd565b602090810291909101015292915050565b6001600160a01b0384163b15610dc35760405163f23a6e6160e01b81526001600160a01b0385169063f23a6e6190611f1b9089908990889088908890600401612d63565b6020604051808303816000875af1925050508015611f56575060408051601f3d908101601f19168201909252611f5391810190612c59565b60015b611f6257611dbc612c76565b6001600160e01b0319811663f23a6e6160e01b146116af5760405162461bcd60e51b81526004016105c890612d1b565b6001600160a01b0381168114611fa757600080fd5b50565b60008060408385031215611fbd57600080fd5b8235611fc881611f92565b946020939093013593505050565b6001600160e01b031981168114611fa757600080fd5b600060208284031215611ffe57600080fd5b813561200981611fd6565b9392505050565b60005b8381101561202b578181015183820152602001612013565b50506000910152565b6000815180845261204c816020860160208601612010565b601f01601f19169290920160200192915050565b6020815260006120096020830184612034565b60006020828403121561208557600080fd5b5035919050565b634e487b7160e01b600052604160045260246000fd5b601f8201601f191681016001600160401b03811182821017156120c7576120c761208c565b6040525050565b60006001600160401b038211156120e7576120e761208c565b5060051b60200190565b600082601f83011261210257600080fd5b8135602061210f826120ce565b60405161211c82826120a2565b83815260059390931b850182019282810191508684111561213c57600080fd5b8286015b8481101561216057803561215381611f92565b8352918301918301612140565b509695505050505050565b600082601f83011261217c57600080fd5b81356020612189826120ce565b60405161219682826120a2565b83815260059390931b85018201928281019150868411156121b657600080fd5b8286015b8481101561216057803583529183019183016121ba565b6000806000606084860312156121e657600080fd5b83356001600160401b03808211156121fd57600080fd5b612209878388016120f1565b9450602086013591508082111561221f57600080fd5b61222b8783880161216b565b9350604086013591508082111561224157600080fd5b5061224e8682870161216b565b9150509250925092565b60006001600160401b038311156122715761227161208c565b604051612288601f8501601f1916602001826120a2565b80915083815284848401111561229d57600080fd5b83836020830137600060208583010152509392505050565b600082601f8301126122c657600080fd5b61200983833560208501612258565b600080600080600060a086880312156122ed57600080fd5b85356122f881611f92565b9450602086013561230881611f92565b935060408601356001600160401b038082111561232457600080fd5b61233089838a0161216b565b9450606088013591508082111561234657600080fd5b61235289838a0161216b565b9350608088013591508082111561236857600080fd5b50612375888289016122b5565b9150509295509295909350565b60006020828403121561239457600080fd5b813561200981611f92565b600080604083850312156123b257600080fd5b82356001600160401b03808211156123c957600080fd5b6123d5868387016120f1565b935060208501359150808211156123eb57600080fd5b506123f88582860161216b565b9150509250929050565b600081518084526020808501945080840160005b8381101561243257815187529582019590820190600101612416565b509495945050505050565b6020815260006120096020830184612402565b6000806000806080858703121561246657600080fd5b843561247181611f92565b9350602085013592506040850135915060608501356001600160401b0381111561249a57600080fd5b6124a6878288016122b5565b91505092959194509250565b6000602082840312156124c457600080fd5b81356001600160401b038111156124da57600080fd5b8201601f810184136124eb57600080fd5b6124fa84823560208401612258565b949350505050565b6000806040838503121561251557600080fd5b823561252081611f92565b91506020830135801515811461253557600080fd5b809150509250929050565b600080600080600060a0868803121561255857600080fd5b85356001600160401b038082111561256f57600080fd5b61257b89838a016120f1565b9650602088013591508082111561259157600080fd5b61259d89838a0161216b565b9550604088013591508082111561232457600080fd5b600080604083850312156125c657600080fd5b82356125d181611f92565b9150602083013561253581611f92565b6020808252825182820181905260009190848201906040850190845b818110156126225783516001600160a01b0316835292840192918401916001016125fd565b50909695505050505050565b600080600080600060a0868803121561264657600080fd5b853561265181611f92565b9450602086013561266181611f92565b9350604086013592506060860135915060808601356001600160401b0381111561268a57600080fd5b612375888289016122b5565b6000806000606084860312156126ab57600080fd5b83356126b681611f92565b95602085013595506040909401359392505050565b600181811c908216806126df57607f821691505b602082108103610eee57634e487b7160e01b600052602260045260246000fd5b600080845461270d816126cb565b60018281168015612725576001811461273a57612769565b60ff1984168752821515830287019450612769565b8860005260208060002060005b858110156127605781548a820152908401908201612747565b50505082870194505b50505050835161277d818360208801612010565b01949350505050565b6020808252601f908201527f4856616c75653a2063616c6c6572206973206e6f7420746865206f776e657200604082015260600190565b634e487b7160e01b600052603260045260246000fd5b634e487b7160e01b600052601160045260246000fd5b6000600182016127fb576127fb6127d3565b5060010190565b6020808252602e908201527f455243313135353a2063616c6c6572206973206e6f7420746f6b656e206f776e60408201526d195c881bdc88185c1c1c9bdd995960921b606082015260800190565b60208082526024908201527f4856616c75653a2063616c6c6572206973206e6f742074686520636f6e74726f604082015263363632b960e11b606082015260800190565b808201808211156105f6576105f66127d3565b601f821115610f6e57600081815260208120601f850160051c810160208610156128ce5750805b601f850160051c820191505b81811015610dc3578281556001016128da565b81516001600160401b038111156129065761290661208c565b61291a8161291484546126cb565b846128a7565b602080601f83116001811461294f57600084156129375750858301515b600019600386901b1c1916600185901b178555610dc3565b600085815260208120601f198616915b8281101561297e5788860151825594840194600190910190840161295f565b508582101561299c5787850151600019600388901b60f8161c191681555b5050505050600190811b01905550565b6000602082840312156129be57600080fd5b815161200981611f92565b818103818111156105f6576105f66127d3565b6000826129f957634e487b7160e01b600052601260045260246000fd5b500490565b80820281158282048414176105f6576105f66127d3565b60ff81811683821601908111156105f6576105f66127d3565b60208082526023908201527f455243313135353a206275726e2066726f6d20746865207a65726f206164647260408201526265737360e81b606082015260800190565b60208082526028908201527f455243313135353a2069647320616e6420616d6f756e7473206c656e677468206040820152670dad2e6dac2e8c6d60c31b606082015260800190565b60208082526024908201527f455243313135353a206275726e20616d6f756e7420657863656564732062616c604082015263616e636560e01b606082015260800190565b604081526000612b106040830185612402565b8281036020840152612b228185612402565b95945050505050565b60208082526025908201527f455243313135353a207472616e7366657220746f20746865207a65726f206164604082015264647265737360d81b606082015260800190565b6020808252602a908201527f455243313135353a20696e73756666696369656e742062616c616e636520666f60408201526939103a3930b739b332b960b11b606082015260800190565b60208082526021908201527f455243313135353a206d696e7420746f20746865207a65726f206164647265736040820152607360f81b606082015260800190565b6001600160a01b0386811682528516602082015260a060408201819052600090612c2790830186612402565b8281036060840152612c398186612402565b90508281036080840152612c4d8185612034565b98975050505050505050565b600060208284031215612c6b57600080fd5b815161200981611fd6565b600060033d1115612c8f5760046000803e5060005160e01c5b90565b600060443d1015612ca05790565b6040516003193d81016004833e81513d6001600160401b038160248401118184111715612ccf57505050505090565b8285019150815181811115612ce75750505050505090565b843d8701016020828501011115612d015750505050505090565b612d10602082860101876120a2565b509095945050505050565b60208082526028908201527f455243313135353a204552433131353552656365697665722072656a656374656040820152676420746f6b656e7360c01b606082015260800190565b6001600160a01b03868116825285166020820152604081018490526060810183905260a060808201819052600090612d9d90830184612034565b97965050505050505056fea2646970667358221220b657da11c8bd26dab3dd29324d493156513651632cc52f549f6d9090fbd27cbe64736f6c63430008110033",
  "devdoc": {
    "kind": "dev",
    "methods": {
      "balanceOf(address,uint256)": {
        "details": "See {IERC1155-balanceOf}. Requirements: - `account` cannot be the zero address."
      },
      "balanceOfBatch(address[],uint256[])": {
        "details": "See {IERC1155-balanceOfBatch}. Requirements: - `accounts` and `ids` must have the same length."
      },
      "exists(uint256)": {
        "details": "Indicates whether any token exist with a given id, or not."
      },
      "isApprovedForAll(address,address)": {
        "details": "See {IERC1155-isApprovedForAll}."
      },
      "safeBatchTransferFrom(address,address,uint256[],uint256[],bytes)": {
        "details": "See {IERC1155-safeBatchTransferFrom}."
      },
      "safeTransferFrom(address,address,uint256,uint256,bytes)": {
        "details": "See {IERC1155-safeTransferFrom}."
      },
      "setApprovalForAll(address,bool)": {
        "details": "See {IERC1155-setApprovalForAll}."
      },
      "supportsInterface(bytes4)": {
        "details": "See {IERC165-supportsInterface}."
      },
      "totalSupply(uint256)": {
        "details": "Total amount of tokens in with a given id."
      }
    },
    "version": 1
  },
  "userdoc": {
    "kind": "user",
    "methods": {},
    "version": 1
  },
  "storageLayout": {
    "storage": [
      {
        "astId": 6,
        "contract": "contracts/HValue.sol:HValue",
        "label": "_initialized",
        "offset": 0,
        "slot": "0",
        "type": "t_uint8"
      },
      {
        "astId": 9,
        "contract": "contracts/HValue.sol:HValue",
        "label": "_initializing",
        "offset": 1,
        "slot": "0",
        "type": "t_bool"
      },
      {
        "astId": 2254,
        "contract": "contracts/HValue.sol:HValue",
        "label": "__gap",
        "offset": 0,
        "slot": "1",
        "type": "t_array(t_uint256)50_storage"
      },
      {
        "astId": 2298,
        "contract": "contracts/HValue.sol:HValue",
        "label": "__gap",
        "offset": 0,
        "slot": "51",
        "type": "t_array(t_uint256)50_storage"
      },
      {
        "astId": 197,
        "contract": "contracts/HValue.sol:HValue",
        "label": "_balances",
        "offset": 0,
        "slot": "101",
        "type": "t_mapping(t_uint256,t_mapping(t_address,t_uint256))"
      },
      {
        "astId": 203,
        "contract": "contracts/HValue.sol:HValue",
        "label": "_operatorApprovals",
        "offset": 0,
        "slot": "102",
        "type": "t_mapping(t_address,t_mapping(t_address,t_bool))"
      },
      {
        "astId": 205,
        "contract": "contracts/HValue.sol:HValue",
        "label": "_uri",
        "offset": 0,
        "slot": "103",
        "type": "t_string_storage"
      },
      {
        "astId": 1412,
        "contract": "contracts/HValue.sol:HValue",
        "label": "__gap",
        "offset": 0,
        "slot": "104",
        "type": "t_array(t_uint256)47_storage"
      },
      {
        "astId": 1601,
        "contract": "contracts/HValue.sol:HValue",
        "label": "_totalSupply",
        "offset": 0,
        "slot": "151",
        "type": "t_mapping(t_uint256,t_uint256)"
      },
      {
        "astId": 1752,
        "contract": "contracts/HValue.sol:HValue",
        "label": "__gap",
        "offset": 0,
        "slot": "152",
        "type": "t_array(t_uint256)49_storage"
      },
      {
        "astId": 6110,
        "contract": "contracts/HValue.sol:HValue",
        "label": "name",
        "offset": 0,
        "slot": "201",
        "type": "t_string_storage"
      },
      {
        "astId": 6112,
        "contract": "contracts/HValue.sol:HValue",
        "label": "symbol",
        "offset": 0,
        "slot": "202",
        "type": "t_string_storage"
      },
      {
        "astId": 6114,
        "contract": "contracts/HValue.sol:HValue",
        "label": "owner",
        "offset": 0,
        "slot": "203",
        "type": "t_address"
      },
      {
        "astId": 6116,
        "contract": "contracts/HValue.sol:HValue",
        "label": "controller",
        "offset": 0,
        "slot": "204",
        "type": "t_address"
      },
      {
        "astId": 6119,
        "contract": "contracts/HValue.sol:HValue",
        "label": "hashPunk",
        "offset": 0,
        "slot": "205",
        "type": "t_contract(IHashPunk)6108"
      },
      {
        "astId": 6121,
        "contract": "contracts/HValue.sol:HValue",
        "label": "currentTimeStamp",
        "offset": 0,
        "slot": "206",
        "type": "t_uint256"
      },
      {
        "astId": 6123,
        "contract": "contracts/HValue.sol:HValue",
        "label": "baseMetadataURI",
        "offset": 0,
        "slot": "207",
        "type": "t_string_storage"
      },
      {
        "astId": 6126,
        "contract": "contracts/HValue.sol:HValue",
        "label": "passId",
        "offset": 0,
        "slot": "208",
        "type": "t_uint256"
      },
      {
        "astId": 6129,
        "contract": "contracts/HValue.sol:HValue",
        "label": "Hpoint",
        "offset": 0,
        "slot": "209",
        "type": "t_uint256"
      },
      {
        "astId": 6132,
        "contract": "contracts/HValue.sol:HValue",
        "label": "voucher",
        "offset": 0,
        "slot": "210",
        "type": "t_uint256"
      },
      {
        "astId": 6135,
        "contract": "contracts/HValue.sol:HValue",
        "label": "luckyStart",
        "offset": 0,
        "slot": "211",
        "type": "t_uint256"
      },
      {
        "astId": 6138,
        "contract": "contracts/HValue.sol:HValue",
        "label": "luckyEnd",
        "offset": 0,
        "slot": "212",
        "type": "t_uint256"
      },
      {
        "astId": 6141,
        "contract": "contracts/HValue.sol:HValue",
        "label": "exchangeLimit",
        "offset": 0,
        "slot": "213",
        "type": "t_uint256"
      },
      {
        "astId": 6145,
        "contract": "contracts/HValue.sol:HValue",
        "label": "exchangeTimes",
        "offset": 0,
        "slot": "214",
        "type": "t_mapping(t_address,t_uint256)"
      },
      {
        "astId": 6149,
        "contract": "contracts/HValue.sol:HValue",
        "label": "negtiveValue",
        "offset": 0,
        "slot": "215",
        "type": "t_mapping(t_address,t_uint256)"
      }
    ],
    "types": {
      "t_address": {
        "encoding": "inplace",
        "label": "address",
        "numberOfBytes": "20"
      },
      "t_array(t_uint256)47_storage": {
        "base": "t_uint256",
        "encoding": "inplace",
        "label": "uint256[47]",
        "numberOfBytes": "1504"
      },
      "t_array(t_uint256)49_storage": {
        "base": "t_uint256",
        "encoding": "inplace",
        "label": "uint256[49]",
        "numberOfBytes": "1568"
      },
      "t_array(t_uint256)50_storage": {
        "base": "t_uint256",
        "encoding": "inplace",
        "label": "uint256[50]",
        "numberOfBytes": "1600"
      },
      "t_bool": {
        "encoding": "inplace",
        "label": "bool",
        "numberOfBytes": "1"
      },
      "t_contract(IHashPunk)6108": {
        "encoding": "inplace",
        "label": "contract IHashPunk",
        "numberOfBytes": "20"
      },
      "t_mapping(t_address,t_bool)": {
        "encoding": "mapping",
        "key": "t_address",
        "label": "mapping(address => bool)",
        "numberOfBytes": "32",
        "value": "t_bool"
      },
      "t_mapping(t_address,t_mapping(t_address,t_bool))": {
        "encoding": "mapping",
        "key": "t_address",
        "label": "mapping(address => mapping(address => bool))",
        "numberOfBytes": "32",
        "value": "t_mapping(t_address,t_bool)"
      },
      "t_mapping(t_address,t_uint256)": {
        "encoding": "mapping",
        "key": "t_address",
        "label": "mapping(address => uint256)",
        "numberOfBytes": "32",
        "value": "t_uint256"
      },
      "t_mapping(t_uint256,t_mapping(t_address,t_uint256))": {
        "encoding": "mapping",
        "key": "t_uint256",
        "label": "mapping(uint256 => mapping(address => uint256))",
        "numberOfBytes": "32",
        "value": "t_mapping(t_address,t_uint256)"
      },
      "t_mapping(t_uint256,t_uint256)": {
        "encoding": "mapping",
        "key": "t_uint256",
        "label": "mapping(uint256 => uint256)",
        "numberOfBytes": "32",
        "value": "t_uint256"
      },
      "t_string_storage": {
        "encoding": "bytes",
        "label": "string",
        "numberOfBytes": "32"
      },
      "t_uint256": {
        "encoding": "inplace",
        "label": "uint256",
        "numberOfBytes": "32"
      },
      "t_uint8": {
        "encoding": "inplace",
        "label": "uint8",
        "numberOfBytes": "1"
      }
    }
  }
}